:020000040800F2
:10000000309F002059020008B1480008153C000844
:1000100021470008E50F0008659700080000000070
:10002000000000000000000000000000A101000826
:10003000011A000800000000F5010008ED63000847
:1000400073020008730200087302000873020008BC
:1000500073020008730200087302000873020008AC
:10006000730200087302000873020008730200089C
:10007000730200087302000873020008730200088C
:10008000730200087302000873020008730200087C
:10009000551200087302000873020008730200087A
:1000A000730200087302000873020008C1640008AC
:1000B000730200087302000873020008730200084C
:1000C000730200087302000873020008730200083C
:1000D0007302000879750008AD75000809770008FB
:1000E000730200087302000873020008730200081C
:1000F000730200087302000873020008730200080C
:1001000073020008730200087302000873020008FB
:10011000A57000087302000873020008730200084B
:1001200073020008730200087302000873020008DB
:1001300073020008730200087302000873020008CB
:10014000730200087302000873020008955100084A
:1001500073020008730200087302000873020008AB
:10016000730200087302000873020008730200089B
:10017000730200087302000873020008730200088B
:100180007302000873020008DFF810D000F0C8FB0B
:1001900000480047C5C30008AFF30080309F00202F
:1001A0002A4B19680868B0E8F04F80F30988BFF35C
:1001B0006F8F4FF0000080F311887047000000003F
:1001C00006480068006880F3088862B661B6BFF32D
:1001D0004F8FBFF36F8F00DF00BF00BF08ED00E05F
:1001E000DFF80C00016841F470010160704700BF46
:1001F00088ED00E0EFF30980BFF36F8F134B1A68AF
:100200001EF0100F08BF20ED108A20E9F04F10609B
:1002100008B44FF0500080F31188BFF34F8FBFF345
:100220006F8F0EF097F94FF0000080F3118808BC33
:1002300019680868B0E8F04F1EF0100F08BFB0EC66
:10024000108A80F30988BFF36F8F70471000002079
:10025000EFF30580704700000648804706480047D6
:10026000FEE7FEE7FEE7FEE7FEE7FEE7FEE7FEE766
:10027000FEE7FEE7016400088901000840EA010387
:100280009B0703D009E008C9121F08C0042AFAD24C
:1002900003E011F8013B00F8013B521EF9D2704710
:1002A000D2B201E000F8012B491EFBD270470022B8
:1002B000F6E710B513460A4604461946FFF7F0FF65
:1002C000204610BD421C10F8011B0029FBD1801AEA
:1002D000704710B5002200E0521C835C8C5CA34286
:1002E00001D1002BF8D1D8B2E1B2401A10BD2DE9EE
:1002F000FE4F804681EA0300C00F0C46009021F0BB
:10030000004123F00045B8EB0200A94105D2404668
:10031000214690461C460B46024623F000401043FF
:1003200047D0270DC7F30A00C3F30A510290401AC1
:10033000019040286BDAC3F3130040F4801B00984F
:10034000924620B10023D2EB030A63EB0B0B01981A
:100350005946C0F14002504600F0E5F906460D4608
:1003600050465946019A00F0EDF910EB0800614142
:10037000002487EA115284EAE7731A4340D0009AB6
:1003800062B3019A012A4FEA075215DC001B61EBA8
:1003900002014FF0004202EA0752CDE90042001C80
:1003A00041F5801132462B4600F024FA03B0BDE837
:1003B000F08F40462146F9E7001B61EB0201001C6B
:1003C00041F5801300185B412018A2F5001747EB98
:1003D000030140EAD570B6196D4111E06D084FEA8E
:1003E000360645EAC0754FEA0752001B61EB020171
:1003F000001C41F5801149084FEA300000195141B5
:1004000032462B4603B0BDE8F04F00F0E4B9009847
:10041000012240000023D0EB020263EBE07300985E
:1004200021464FEAE074B8EB000061EB0401E9E714
:1004300083F000435BE781F0004158E72DE9FE4F70
:1004400081EA030404F0004421F0004100944FF0DD
:10045000000B23F0004350EA01045ED052EA03048B
:100460005BD0C3F30A54C1F30A552C44A4F2F3340D
:100470000194A0FB0254C1F3130141F48011C3F3B2
:10048000130343F4801301FB024400FB034E840A70
:10049000970A44EA815447EA8357A4FB0768029508
:1004A0008D0A05FB07854FEA932C04FB0C542705A6
:1004B000029D4FEA065847EA1637B5EB08056EEB82
:1004C000070C870E920E47EA811742EA8312A7FBB8
:1004D0000201B6EB0B0164EB00042B0D43EA0C3375
:1004E0005E1844EB1C50DA465146E7FB0201C5F3A7
:1004F00013044FEA0B3343EA14534FEA0432019CCE
:1005000043EA0603A4F10C040294009CCDE900B474
:1005100000F070F903B0BDE8F08F00200146F9E764
:100520002DE9F04D81EA030404F0004B21F0004571
:1005300014464FF0000A23F0004150EA050220D093
:1005400054EA01021DD0C5F30A570246C5F313034E
:10055000C1F31300C1F30A5640F4801543F480132D
:10056000A7EB0608101BD64608F2FD3873EB050012
:1005700002D308F1010801E092185B41B8F1000FC5
:1005800003DA00200146BDE8F08D00204FF4801111
:10059000064684460EE0171B73EB050705D3121BB6
:1005A00063EB050306434CEA010C49084FEA3000AF
:1005B00092185B4150EA0107EDD152EA030012D0D4
:1005C00082EA040083EA0501084305D0101BAB4111
:1005D00006D20122002306E000224FF0004302E091
:1005E0006FF0010253101AEB06004CEB085110EBB0
:1005F0000A0041EB0B01BDE8F04D00F0ECB80EB580
:10060000C10F80EAE0700844CA07002140F233437A
:100610008DE80E000A460B4600F0ECF803B000BD72
:100620000EB540F2334102910021CDE900110A4696
:100630000B4600F0DFF803B000BD00F0004230F0E0
:1006400000400AD0C10D01F56071C0F3160042EA06
:100650000151C2084007114370470020014670470E
:1006600001F0004330B421F0004150EA010206D00D
:100670000A0DA2F56072C1F31301002A02DC30BC3E
:1006800000207047440F44EAC104C100E01830BCA8
:1006900000EBC25000F068B830B50B4601460020B0
:1006A0002022012409E021FA02F59D4205D303FA34
:1006B00002F5491B04FA02F52844151EA2F10102B5
:1006C000F1DC30BD2DE9F05F0546002092469B46E7
:1006D00088460646814640241BE028464146474658
:1006E000224600F02FF953465A46C01A914110D3C2
:1006F00011461846224600F016F82D1A67EB01083D
:100700004F4622460120002100F00DF817EB0009AA
:100710004E41201EA4F10104DFDC484631462A4642
:100720004346BDE8F09F202A04DB203A00FA02F19C
:10073000002070479140C2F1200320FA03F31943CF
:1007400090407047202A06DBCB17203A41FA02F08E
:1007500043EAE07306E041FA02F3D040C2F120021E
:1007600091400843194670470029A8BF7047401CB4
:10077000490008BF20F00100704710B4B0FA80FCB7
:1007800000FA0CF050EA010404BF10BC704749B1F4
:10079000CCF1200421FA04F411FA0CF118BF012164
:1007A00021430843A3EB0C01CB1D4FEA00614FEA44
:1007B000102042BF002010BC704700EBC350104413
:1007C0000029A4BF10BC7047401C490008BF20F09E
:1007D000010010BC704710B5141E73F1000408DA54
:1007E000401C41F1000192185B411A4301D120F0F5
:1007F000010010BD2DE9F04D92469B4611B1B1FAB2
:1008000081F202E0B0FA80F220329046FFF78BFFCF
:1008100004460F4640EA0A0041EA0B0153465A4695
:10082000084313D0114653EA010019D0C8F1400221
:10083000504600F087F805460E4650465946424657
:10084000FFF771FF084305D0012004E02046394638
:10085000BDE8F08D0020054346EAE0762C4337439F
:100860000A986305E40AA0EB08000022FD0A44EAA6
:1008700047540A3002D500200146E9E70105101966
:100880006941DDE9084500196941BDE8F04DA2E77D
:1008900070B521F0004303430CD0C1F30A55002486
:1008A000D5EB040564EB0403D617AD1AB34102DBA4
:1008B0000020014670BD201841EB025170BDC1F30C
:1008C0000A52C1F3130140F2FF3341F480119A42FE
:1008D00002DA00200146704740F233439A42A2F206
:1008E000334202DC524200F02DB8FFF71CBF00007B
:1008F00030B5041E71F1000404DB4FF000444042A7
:1009000064EB0101141E73F1000405DB1C464FF07B
:100910000043524263EB0403994208BF904230BD4A
:10092000064C074D06E0E06840F0010394E807003C
:1009300098471034AC42F6D3FFF72AFC9010010818
:10094000B0100108202A04DB203A21FA02F000212D
:10095000704721FA02F3D040C2F1200291400843CF
:10096000194670472DE9F04D00231A461B1A8A419B
:1009700003DB00200146BDE8F08DC1F30A52C1F34C
:10098000130141F480154FF0000BD10702D100187C
:100990006D41521E0027044640F2FF11384601EB1C
:1009A000620A3E468046024600204FF48011FFF75F
:1009B000C9FFC2197141BB1846EB0100B4EB030C2F
:1009C00075EB000C04D3E41A65EB000517460E46E0
:1009D000241908F101006D4180463428E3DDF9193E
:1009E00046EB0600091BA84103D24FF0FF32134625
:1009F00001E0002213461BEB070046EB0A51BDE85D
:100A0000F04DFFF7E8BE70B58C1810F8015B15F0DB
:100A1000070301D110F8013B2A1106D110F8012B70
:100A200003E010F8016B01F8016B5B1EF9D12B0795
:100A300005D40023521E0DD401F8013BFAE710F84B
:100A4000013BCB1A921C03E013F8015B01F8015B38
:100A5000521EF9D5A142D8D3002070BD70B58CB01C
:100A60000121022004F016FF032501268DF81C50F9
:100A7000002406968DF81F4006A91D4801F0E8FFE6
:100A80000121042004F006FF042006908DF81C507C
:100A90008DF81F4006A9174801F0DAFF01210D0269
:100AA000284604F01BFF0121284604F023FF002103
:100AB000284604F01FFF089428020B94CDE909048E
:100AC00008A800F025F88DF8044000948DF8054042
:100AD00002940494084C8DF814606946204600F096
:100AE00037F80121204600F009F80CB070BD000075
:100AF00000040240000802400020014000298168F3
:100B000002D041F0010101E021F001018160704754
:100B1000084B10B5D3F8042307490A40D0E9001464
:100B20002143D0E90240044321431143C3F8041395
:100B300010BD000000200140E030FCFFC06C80B21E
:100B400070470246002012680A4200D00120704718
:100B500030B542680F4B0C791A400B6842EA042208
:100B60001343436082680C4B4D791A40D1E903432B
:100B700023438C6844EA4504234313438360C26AD9
:100B8000097D22F47002491EC9B242EA0151C162D4
:100B900030BD0000FFFEFFFCFDF7FFC070B507266B
:100BA00009290AD9C568A1F10A0404EB4404A64046
:100BB000B543A3401D43C56007E0056901EB41044F
:100BC000A640B543A3401D4305611F23072A09D250
:100BD000446B521E02EB820293409C4391400C43B3
:100BE000446370BD0D2A09D2046BD21F02EB82024E
:100BF00093409C4391400C43046370BDC46A0D3A1A
:100C000002EB820293409C4391400C43C46270BD4E
:100C1000816841F08041816070470021417081709E
:100C2000C17001710170704770B5384D9FED380A81
:100C3000DFED380A95ED131A86B051EE000AB1EED9
:100C4000041A60EE810AB3EE0A1AC0EE811AFDEEB4
:100C5000E10A10EE903A642B00DD6423D5ED070A1B
:100C600060EE800AFDEEE00A10EE900A002800DA3D
:100C70004042D5ED100A20EE800ABDEEC00A10EE0B
:100C8000101A002900DA4942234C6278A2B10022EE
:100C90006270224CE678012E10D0214DB5F91C402F
:100CA0006AB3B5F91A20B5F9181006B02346BDE8A5
:100CB00070401CA009F0A4BB0122E9E720481D49AF
:100CC0001D4B1E4A00880DF1080C1B8812884E6BC4
:100CD0008CE84D001B4A1C4812880088CDE90002B0
:100CE000D5E9142391ED0B0A18A0BDEEC00A10EE51
:100CF000101A09F085FB0020E07006B070BDCAB282
:100D0000C1B21AA0009409F07BFBF6E7A88400208A
:100D10000000C8420000FA4468010020D50000200D
:100D2000A08500207B4225643A25643A25647D2411
:100D30000000000000850020620100203401002036
:100D40003201002030010020260100207B43256471
:100D50003A25643A25643A25643A25643A25643A8A
:100D600025643A25643A25647D2400007B4125648E
:100D70003A25643A25643A25647D2400F0B5224B77
:100D80000027D97A1E7B491CCDB2711CCCB2997A4E
:100D90002B2812D081B35A7A03F12C0C521CD2B2F8
:100DA0000CEB810C5A725CF804CC1CF802C0844530
:100DB0000CD1DD72222D06D01CE0491C99725F72A5
:100DC000DD721C7316E0DF721F7311E00E4D2435C7
:100DD00005EB810555F8045CAA5C824203D0012929
:100DE0000BD10D2E09D31C732C2C03D11F73DF7272
:100DF0009F725F720120F0BD03E0DF721F739F726C
:100E00005F720020F7E700007C0100204FF4FA61D8
:100E100081604910C16040F2DC51416070470000C0
:100E20002DED028B82B00BF095F8DFF8A881DFF88A
:100E30009C91674D40F6B83A40F2CE4BA8F1380687
:100E400000279FED658A01900A2101A80DF0F8F8AE
:100E50006868504501DA401C686001F0F9FF00F055
:100E6000FDFC642008F080FC05F010F86868A0F232
:100E7000E931C7290AD2F0EE480AB0EE601A9FEDB8
:100E8000570A01F02DFB0CF09DFA11E0A0F2B140E1
:100E90001D280DD2B0EE480A012188F80110B0EEED
:100EA000401AF0EE400A01F01BFB4FF4FA70688123
:100EB0006968594549DD687A58B9B078401CC0B2B4
:100EC000B070642805D986ED018A86ED028A86ED28
:100ED000038A99F806004C46012805D0307841076E
:100EE0001FD501F047FF30E06079012820790AD052
:100EF00030B1677104F11C0090EC030A01F0F0FAC4
:100F0000607928B121E00028F3D104F12800F3E74B
:100F10002079D0B9B0EE480AB0EE401AF0EE400A9F
:100F200011E0010702D504F0E1FD0EE0810702D5D2
:100F300004F092FB09E0400602D503F0DFF804E07C
:100F4000301D90EC030A01F0CBFA98F814004446E7
:100F500001280CD1686840F21451884207DD6420F2
:100F600000F050FD01287FF46FAF27756CE705F0A6
:100F700085FF707018B31748183004F031F9154820
:100F80002C3004F02DF91348403004F029F91148B1
:100F9000543004F025F900231A46194618460097E4
:100FA00005F030F90E4801F0D9FC01280AD0DDD94E
:100FB0004FF00B014FF00A0000F016F844E704F080
:100FC00009FFEFE764210120F6E70000C47E00205E
:100FD000A87D00203885002000000000CDCC4C3ECC
:100FE000D7000020FEE7000030B50C4C23780A2B18
:100FF00001D3002030BD0A4D627805F8120005EBE0
:101000004200521C41700A20B2FBF0F100FB11209B
:1010100060705B1C2370012030BD0000A800002020
:10102000FC7E00201CB50121082004F033FC4FF4A5
:101030000060009001208DF8040000248DF8064027
:1010400003218DF805108DF807006946034801F06B
:10105000FFFC0348C0F8AC421CBD0000000C02407D
:101060000080414200EE102AB7EE001AF0B5F8EE0B
:10107000400A01EB810300265B0081EE200ADFEDD0
:10108000220A234F0143354620EE200ABCEEC00A57
:1010900010EE104A1FFA84FC1C4C01D0634505D2A7
:1010A0003D81FD700120C4F8AC52F0BD00EE102A65
:1010B0003989B8EE400AC1EE001A00EE101AB8EEF7
:1010C000400A01EEA00ABCEEC00A10EE101A89B266
:1010D0003981994203D20120C4F8AC0211E0B1EB8E
:1010E000430F02D2C4F8AC520BE03D81F978491CA1
:1010F000C9B2F970814204D1C4F8AC52FD7001202C
:10110000F0BD3046F0BD000000007A44008041424E
:10111000A800002070B51B4C064604F10A05A07912
:10112000B0B92078A0B12179012911D1164AA1784E
:1011300012F8113002EB41022B7052786A700A22C9
:10114000491CB1FBF2F302FB1311A170401E207089
:10115000697828783246FFF785FF00212071012841
:101160000BD0A079002807D06079401CC0B2607114
:10117000B04201D36171A17170BD29706970012005
:10118000A071F1E7A8000020FC7E00202DE9F047C7
:1011900088B09946DDF840A0F0B3E9B3E2B3B9F105
:1011A000000F53D0A0F101084E1E571E01F018FC8D
:1011B0000121480604F086FB00248DF806408DF8D6
:1011C00007408DF804708DF8084001258DF8056002
:1011D0008DF809508DF802A01D4E8DF80A408DF84B
:1011E00003808DF80B40ADF800906946304600F062
:1011F000A1F98DF816408DF817408DF81850ADF80C
:101200000C40ADF81040ADF80E40ADF81240ADF80E
:1012100014408DF8195000E018E003A800F01CF904
:1012200001220221304600F07DF914208DF81C00C7
:1012300003208DF81D008DF81E408DF81F5007A863
:1012400003F038FB002008B0BDE8F0870120FAE782
:101250000064004000B587B06A460021304800F0C5
:10126000DDF9DDF80B000590DDF80F0006909DF824
:101270000800C0B1042814D10198012811D02949CF
:10128000C8420ED10021084605AA135C401C19442F
:10129000C0B2C9B20828F8D3082902D122490120D6
:1012A000087207B000BD00980022A0F58070813858
:1012B00008D00128F5D11D4880F8342005A802F097
:1012C0004BFCEEE71A490878C30601D410200870D9
:1012D0008A70BDF8140040BA00B200EE100AF8EEB1
:1012E000C00A9FED140A80EE801A81ED011ABDF844
:1012F000160040BA00B200EE900AF8EEE00A80EE66
:10130000801A81ED021ABDF8180040BA00B200EE52
:10131000900AF8EEE00A80EE801A81ED031AC0E729
:101320000064004088A9CBEDA87D0020C47E002089
:101330000085002000007A447CB5194C00206D46E1
:101340002118097E2954401CC0B20828F8D3294628
:1013500040F2011000F054F80020211891F82010FC
:101360002954401CC0B20828F7D369464FF4817055
:1013700000F046F80020211891F828102954401C4C
:10138000C0B20828F7D3694640F2031000F038F8DD
:101390000448007A012801D100F088F97CBD0000E2
:1013A00060870020A87D002070B586B0134E0190A4
:1013B00004208DF8080000208DF8090008208DF821
:1013C0000A000868CDF80B004868CDF80F006946A0
:1013D000304600F0ADF94FF6FF7501E0641CA4B291
:1013E0003946304600F004FA08B9AC42F6D3AC42B4
:1013F00002D3012006B070BD0020FBE7006400406E
:1014000070B586B0134E009000208DF808008DF85E
:10141000090008208DF80A000868CDF80B0048681C
:10142000CDF80F006946304600F082F94FF6FF759F
:1014300001E0641CA4B23946304600F0D9F908B97D
:10144000AC42F6D3AC4202D3012006B070BD0020FE
:10145000FBE7000000640040F0B5827A2F4D0121C7
:1014600091402A6842F001022A602C4E1C363268F4
:101470008A433260294A047B294B0C32A4B9146890
:101480008C4314604488C78844EA0744877A03EB96
:10149000C707C7F840460488878844EA0744877A24
:1014A00003EBC707C7F84446047B012C12D114682C
:1014B0000C431460847A026803EBC4044FEA32429E
:1014C000C4F84026847A426803EBC4034FEA3242F0
:1014D000C3F84426114AC37A121D002B136806D0A4
:1014E0000B4313600D4A0389143213B104E08B439C
:1014F000F7E713688B4313600389012B02D113684C
:101500000B431360407B012802D1306808433060F0
:10151000286820F001002860F0BD0000006600404F
:1015200000600040002A426901D00A4300E08A437B
:101530004261704710B50368002223F00203036084
:10154000036843F0010303604FF6FF7300E0521C91
:101550004468E40701D19A42F9D14268D2073ED0EB
:101560008A79012A02683CD022F080020260CA799E
:10157000012A026838D022F0400202600A7A012A69
:10158000026834D022F0200202604A7A012A0268FE
:1015900030D022F0100202608A7A012A02682CD030
:1015A00022F008020260CA7A012A026828D022F0DA
:1015B000040202608A78CC78920742EA04620C79CD
:1015C00042EA04424C79098842EA0452491E0A431D
:1015D000C261016821F001010160002114E00020D6
:1015E00010BD42F08002C1E742F04002C5E742F080
:1015F0002002C9E742F01002CDE742F00802D1E72D
:1016000042F00402D5E7491C4268D20701D0994252
:10161000F9D14068C007E2D1012010BD10B500EB40
:101620000113D3F8B04114F004041472D3F8B0419C
:1016300033D0E4085460D3F8B04104F0020454728B
:10164000D3F8B44104F00F049472D3F8B441240ADF
:10165000D474D3F8B841D472D3F8B841240A1473BF
:10166000D3F8B841240C5473D3F8B841240E9473C2
:10167000D3F8BC41D473D3F8BC41240A1474D3F812
:10168000BC41240C5474D3F8BC311B0E937439B193
:10169000016941F02001016110BD640D1460CAE7C9
:1016A000C16841F02001C16010BD00001CB50020E0
:1016B0008DF800001C48DFED1D0A90ED040A20EEB5
:1016C000200ABDEEC00A10EE101A09128DF80110A2
:1016D00010EE101A8DF8021090ED050A20EE200A87
:1016E000BDEEC00A10EE101A09128DF8031010EEAC
:1016F000101A8DF8041090ED060A20EE200ABDEEB7
:10170000C00A10EE101A09128DF8051010EE101A0A
:101710008DF80610007A8DF80700694640F2051032
:10172000FFF76EFE1CBD0000C47E002000007A445E
:1017300030B50246002093685B0108D49068000130
:1017400001D5012003E09068C00044D5022002EBDF
:101750000012D2F8803103F00103C2F880310B7A15
:10176000C3B3D2F880414D681C434B7A43EAC503AA
:101770001C43C2F880418B7A03F00F038B72D2F8BE
:10178000843123F00F03C2F88431D2F884318C7A8B
:101790002343C2F88431CB7A8C7B0D7B43EA04630C
:1017A0004C7B240444EA05242343C2F88831CB7BD4
:1017B0008C7C43EA04634C7C097C240444EA0121C8
:1017C0000B43C2F88C31D2F8801141F00101C2F80C
:1017D000801130BD01E00420FBE7D2F880314C7A63
:1017E00023430C8843EA4453C2F88031C3E7000026
:1017F000002221B1012905D0022906D112E0826818
:10180000114801E08268114802401149501A8A4289
:1018100014D00ADCA2B16FF0806010180FD002283B
:101820000CD10FE082680B48EEE7B0F5007F09D0DD
:101830000949401803D0B0F5003F03D0002070479D
:1018400002207047012070470300000400030008D5
:1018500000010008000003100001FFF770B51D4CE7
:101860001D4E0025A079012804D1307A10B9A57148
:1018700001F012F8307A012819D194F83400401C94
:10188000C0B284F83400642804D90AF06DF96520E8
:1018900084F8340011481249C06C884207DA207974
:1018A00028B11048817911B185710120A0710E48CD
:1018B000018A491C89B201820A2909D90B210182B6
:1018C00040F2DC514FF47A720160C0E90112C1604C
:1018D00070BD0000C47E0020A87D0020A8840020E8
:1018E0000000A0412801002088830020034610B595
:1018F0000020024603E09C5C6040521C92B28A4287
:10190000F9D310BD03498988C140C80700D0012020
:1019100070470000F8000020174A032809D013463A
:10192000DFED160A93ED0B0A082809D00A280ED01D
:1019300015E0012913D112490120096808740EE04D
:10194000022901D001290AD130EE600A05E00229FE
:1019500001D0012903D130EE200A82ED0B0A92ED6D
:101960000B0AB5EEC00AF1EE10FA03D29FED050A9C
:1019700082ED0B0A704700000085002000004842FD
:10198000E00000200000000070B504460020024680
:1019900004EB8001401CC1F888291028F8D30020EE
:1019A0004FF400652118401C81F81C21A842F9D38E
:1019B000227062700120A070C4F8C82920764021EE
:1019C000A171627684F81C2984F81D0984F81F2906
:1019D000010284F81E2904F11C00FEF768FC294668
:1019E00004F58E70FEF763FC122104F62610FEF754
:1019F0005EFC3E2104F63810FEF759FC002070BD55
:101A0000704700002DE9FC5F0546DFF8908200205A
:101A10000190D8F83000A24F401CC8F830000128CF
:101A20000CD1A048006808B10CF024FD9E4938464E
:101A30000AF07AF814210120FFF7D6FA4FF0010AD4
:101A4000F6EE000A9FED990AD8F83000DFF860B290
:101A5000DFF86092984C0026B0EB450F0BD2C4ED36
:101A6000060A84ED090A84ED0C0A84ED0F0A04F0DD
:101A7000B1F992486DE05DD191A138460AF054F871
:101A800094ED070A10EE100A00EB0B019748814213
:101A900001D297A149E010EE100A994988F807A0F1
:101AA000884205D997A138460AF03EF89D493CE0A6
:101AB000D4ED0A0A4846F0EEE00A10EE901A814290
:101AC00005DD99A138460AF02FF8A7492DE0D4ED9D
:101AD0000D0AF0EEE00A10EE901A814205DDA3A196
:101AE00038460AF021F8B1491FE0D4ED100AF0EEB3
:101AF000E00A10EE901A494505DDADA138460AF01E
:101B000013F8BB4911E0B0EEC00A10EE100AB94953
:101B100088420DDAB848816841F28830814207DD99
:101B2000B6A138460AF000F8C249384609F0FCFF71
:101B3000C1A13FE3B0EB850F12D284ED060AC4EDDC
:101B4000090A84ED0C0A84ED0F0A04F043F95B489E
:101B5000001D06605948001F066058480838C8E252
:101B60005ED1C1A1384609F0DFFF94ED0A0A10EEFC
:101B7000100A00EB0B015D48814201D2C5A14AE089
:101B800010EE100A5E4988F807A0884205D9C5A161
:101B9000384609F0C9FFCB493DE0D4ED070A484675
:101BA000F0EEE00A10EE901A814205DDC6A138463B
:101BB00009F0BAFF6C492EE0D4ED0D0AF0EEE00A10
:101BC00010EE901A814205DDCFA1384609F0ACFF36
:101BD000DD4920E0D4ED100AF0EEE00A10EE901A94
:101BE000494505DDD9A1384609F09EFFE74912E0D5
:101BF000B0EEC00A10EE100A7E4988420EDA7E4826
:101C00001430816841F28830814207DDE0A1384616
:101C100009F08AFFEC49384609F086FFEBA1C9E2DA
:101C200005EB4501B0EB410F0ED284ED060A84EDC1
:101C3000090AC4ED0C0A84ED0F0A04F0CBF81F4822
:101C4000001D0660001F87E725D1ECA1384609F08A
:101C50006BFF94ED0D0A10EE100A00EB0B01234808
:101C6000814201D2F0A12DE210EE100A244988F839
:101C700007A0884205D9F0A1384609F055FFF6497A
:101C800020E2D4ED070A4846F0EEE00A10EE901A82
:101C9000814201DDE2E11AE2E6E1000028010020D4
:101CA0000010014078010020D00901080000000068
:101CB000323333C1CDCC4C3EA88400203C040140DB
:101CC0003D3D3D3D3D3D3D3D3D3D3D3D3D3D3D3D44
:101CD0003D20B5E7BBFA41203D3D3D3D3D3D3D3D0D
:101CE0003D3D3D3D3D3D3D3D0D0A0000CCCC4C0011
:101CF000B5E7BBFA41D5FDB3A32E0D0A00000000E5
:101D0000CDCC4CBEBCECB2E2B5BD41B5E7BBFAB13F
:101D1000E0C2EBC6F7BCABD0D4B4EDCEF32E0D0AC7
:101D200000000000A00E0108C7FDB6AFB5E7BBFA82
:101D300041CAB12CBCECB2E2B5BDB1E0C2EBC6F712
:101D4000BDD3BFDA42B5C4D0C5BAC52E0D0AD7D4AB
:101D5000BCECCAB1B5E7BBFA41CAC7B7F1D7AAB65E
:101D6000AF3F0D0A00000000200A0108C7FDB6AF12
:101D7000B5E7BBFA41CAB12CBCECB2E2B5BDB1E0EB
:101D8000C2EBC6F7BDD3BFDA43B5C4D0C5BAC52EC2
:101D90000D0AD7D4BCECCAB1B5E7BBFA41CAC7B784
:101DA000F1D7AAB6AF3F0D0A00000000C00A010833
:101DB000C7FDB6AFB5E7BBFA41CAB12CBCECB2E285
:101DC000B5BDB1E0C2EBC6F7BDD3BFDA44B5C4D0F0
:101DD000C5BAC52E0D0AD7D4BCECCAB1B5E7BBFA5B
:101DE00041CAC7B7F1D7AAB6AF3F0D0A000000003D
:101DF000B00B0108CDCC4C3D50850020C7FDB6AFDF
:101E0000B5E7BBFA41CAB12CCEB4BCECB2E2B5BD69
:101E1000B1E0C2EBC6F7D0C5BAC52E0D0AD7D4BC07
:101E2000ECCAB1B5E7BBFA41CAC7B7F1D7AAB6AF9A
:101E30003F0D0A00A00D01083D3D3D3D3D3D3D3DAE
:101E40003D3D3D3D3D3D3D3D3D20B5E7BBFA41209B
:101E50003D3D3D3D3D3D3D3D3D3D3D3D3D3D3D3DB2
:101E60000D0A0D0A000000003D3D3D3D3D3D3D3D5C
:101E70003D3D3D3D3D3D3D3D3D20B5E7BBFA42206A
:101E80003D3D3D3D3D3D3D3D3D3D3D3D3D3D3D3D82
:101E90000D0A0000B5E7BBFA42D5FDB3A32E0D0A2B
:101EA00000000000BCECB2E2B5BD42B5E7BBFAB140
:101EB000E0C2EBC6F7BCABD0D4B4EDCEF32E0D0A26
:101EC00000000000040F0108C7FDB6AFB5E7BBFA7C
:101ED00042CAB12CBCECB2E2B5BDB1E0C2EBC6F770
:101EE000BDD3BFDA41B5C4D0C5BAC52E0D0AD7D40B
:101EF000BCECCAB1B5E7BBFA42CAC7B7F1D7AAB6BC
:101F0000AF3F0D0A00000000C7FDB6AFB5E7BBFA52
:101F100042CAB12CBCECB2E2B5BDB1E0C2EBC6F72F
:101F2000BDD3BFDA43B5C4D0C5BAC52E0D0AD7D4C8
:101F3000BCECCAB1B5E7BBFA42CAC7B7F1D7AAB67B
:101F4000AF3F0D0A00000000380B0108C7FDB6AF17
:101F5000B5E7BBFA42CAB12CBCECB2E2B5BDB1E008
:101F6000C2EBC6F7BDD3BFDA44B5C4D0C5BAC52EDF
:101F70000D0AD7D4BCECCAB1B5E7BBFA42CAC7B7A1
:101F8000F1D7AAB6AF3F0D0A00000000280C0108E7
:101F9000C7FDB6AFB5E7BBFA42CAB12CCEB4BCECB4
:101FA000B2E2B5BDB1E0C2EBC6F7D0C5BAC52E0DE1
:101FB0000AD7D4BCECCAB1B5E7BBFA42CAC7B7F17D
:101FC000D7AAB6AF3F0D0A00200E01083D3D3D3DAA
:101FD0003D3D3D3D3D3D3D3D3D3D3D3D3D20B5E72C
:101FE000BBFA42203D3D3D3D3D3D3D3D3D3D3D3DFE
:101FF0003D3D3D3D0D0A0D0A000000003D3D3D3DCB
:102000003D3D3D3D3D3D3D3D3D3D3D3D3D20B5E7FB
:10201000BBFA43203D3D3D3D3D3D3D3D3D3D3D3DCC
:102020003D3D3D3D0D0A0000B5E7BBFA43D5FDB38C
:10203000A32E0D0A00000000BCECB2E2B5BD43B512
:10204000E7BBFAB1E0C2EBC6F7BCABD0D4B4EDCE7F
:10205000F32E0D0A00000000680F010873A1384636
:1020600009F062FD81492DE0D4ED0A0AF0EEE00AA4
:1020700010EE901A814205DD7DA1384609F054FD2D
:102080008B491FE0D4ED100AF0EEE00A10EE901A32
:10209000494505DD87A1384609F046FD954911E01F
:1020A000B0EEC00A10EE100A934988420DDA934848
:1020B000816841F28830814207DD91A1384609F0FC
:1020C00033FD9D49384609F02FFD9CA172E0B0EB2D
:1020D000C50F10D284ED060A84ED090A84ED0C0ABE
:1020E000C4ED0F0A03F076FEA0480660001F0660EC
:1020F000001F066097E071D19DA1384609F014FDDC
:1021000094ED100A10EE100A00EB0B01A348814277
:1021100001D2A3A14AE010EE100AA54988F807A051
:10212000884205D9A3A1384609F0FEFCA9493DE043
:10213000D4ED070A4846F0EEE00A10EE901A81420C
:1021400005DDA5A1384609F0EFFCB3492EE0D4ED3A
:102150000A0AF0EEE00A10EE901A814205DDAFA106
:10216000384609F0E1FCBD4920E0D4ED0D0AF0EE5F
:10217000E00A10EE901A494505DDB9A1384609F08C
:10218000D3FC5C4912E0B0EEC00A10EE100A5A49C6
:1021900088420EDA59481430816841F28830814211
:1021A00007DDBFA1384609F0BFFCCB49384609F02E
:1021B000BBFC6FA1384609F0B7FC5048283803F043
:1021C0000FF84E48143803F00BF84C4803F008F8A9
:1021D0004A48143003F004F825E0FFE7012001909D
:1021E00084ED060A84ED090A002384ED0C0A84EDCF
:1021F0000F0A1A4619461846009604F003F859A12A
:10220000384609F091FC14210120FEF7EDFE98F804
:10221000070020B9B148006808B10CF06DF8C8F8A3
:10222000306088F807600198BDE8FC9FC7FDB6AF35
:10223000B5E7BBFA43CAB12CBCECB2E2B5BDB1E024
:10224000C2EBC6F7BDD3BFDA41B5C4D0C5BAC52EFF
:102250000D0AD7D4BCECCAB1B5E7BBFA43CAC7B7BD
:10226000F1D7AAB6AF3F0D0A00000000C00A01086E
:10227000C7FDB6AFB5E7BBFA43CAB12CBCECB2E2BE
:10228000B5BDB1E0C2EBC6F7BDD3BFDA42B5C4D02D
:10229000C5BAC52E0D0AD7D4BCECCAB1B5E7BBFA96
:1022A00043CAC7B7F1D7AAB6AF3F0D0A0000000076
:1022B000380B0108C7FDB6AFB5E7BBFA43CAB12C6E
:1022C000BCECB2E2B5BDB1E0C2EBC6F7BDD3BFDA3C
:1022D00044B5C4D0C5BAC52E0D0AD7D4BCECCAB11A
:1022E000B5E7BBFA43CAC7B7F1D7AAB6AF3F0D0AE5
:1022F00000000000700A0108CDCC4C3D788500201C
:10230000C7FDB6AFB5E7BBFA43CAB12CCEB4BCEC3F
:10231000B2E2B5BDB1E0C2EBC6F7D0C5BAC52E0D6D
:102320000AD7D4BCECCAB1B5E7BBFA43CAC7B7F108
:10233000D7AAB6AF3F0D0A00A00C01083D3D3D3DB8
:102340003D3D3D3D3D3D3D3D3D3D3D3D3D20B5E7B8
:10235000BBFA43203D3D3D3D3D3D3D3D3D3D3D3D89
:102360003D3D3D3D0D0A0D0A0000000040040140C6
:102370003D3D3D3D3D3D3D3D3D3D3D3D3D3D3D3D8D
:102380003D20B5E7BBFA44203D3D3D3D3D3D3D3D53
:102390003D3D3D3D3D3D3D3D0D0A0000CCCC4C005A
:1023A000B5E7BBFA44D5FDB3A32E0D0A000000002B
:1023B000CDCC4CBEBCECB2E2B5BD44B5E7BBFAB186
:1023C000E0C2EBC6F7BCABD0D4B4EDCEF32E0D0A11
:1023D00000000000CC0F0108C7FDB6AFB5E7BBFA9F
:1023E00044CAB12CBCECB2E2B5BDB1E0C2EBC6F759
:1023F000BDD3BFDA41B5C4D0C5BAC52E0D0AD7D4F6
:10240000BCECCAB1B5E7BBFA44CAC7B7F1D7AAB6A4
:10241000AF3F0D0A00000000B00B0108C7FDB6AFCA
:10242000B5E7BBFA44CAB12CBCECB2E2B5BDB1E031
:10243000C2EBC6F7BDD3BFDA42B5C4D0C5BAC52E0C
:102440000D0AD7D4BCECCAB1B5E7BBFA44CAC7B7CA
:10245000F1D7AAB6AF3F0D0A00000000280C010812
:10246000C7FDB6AFB5E7BBFA44CAB12CBCECB2E2CB
:10247000B5BDB1E0C2EBC6F7BDD3BFDA43B5C4D03A
:10248000C5BAC52E0D0AD7D4BCECCAB1B5E7BBFAA4
:1024900044CAC7B7F1D7AAB6AF3F0D0A0000000083
:1024A000C7FDB6AFB5E7BBFA44CAB12CCEB4BCEC9D
:1024B000B2E2B5BDB1E0C2EBC6F7D0C5BAC52E0DCC
:1024C0000AD7D4BCECCAB1B5E7BBFA44CAC7B7F166
:1024D000D7AAB6AF3F0D0A00200D010878010020F1
:1024E00010B54F4CB0EE412A2DED028BF0EE602A74
:1024F00094ED0C1AF1EE410A0BF0B8FB94ED0C1AB6
:10250000F0EE401AB0EE620AF1EE410A0BF0AEFBBB
:1025100094ED0C1AF0EE408AB0EE420AF1EE410A58
:102520000BF0A4FB3F48B0EE408A8079E8B3C4EDDD
:10253000041AC4ED058A84ED068A04F1100090ECBB
:10254000030A01F0B9FD0121606B0CF041F8B0EE17
:10255000408A0021606B0CF03BF894ED0C1A324875
:10256000F0EE401AF1EE410A90ED060A0BF07EFB08
:1025700080ED060A94ED0C1A90ED090AF1EE410A7D
:102580000BF074FB80ED090A94ED0C1A90ED0C0A27
:10259000F1EE410A0BF06AFB80ED0C0A94ED0C1A87
:1025A00090ED0F0AF1EE410A00E01AE00BF05EFB3D
:1025B000D0ED060A20EE210A60EE880AC0ED060A78
:1025C000D0ED090A60EE880AC0ED090AD0ED0C0AC8
:1025D00060EEA10AC0ED0C0A80ED0F0ABDEC028B83
:1025E00010BD94ED071A94ED040AF0EE610A07F0AD
:1025F000D1FA84ED040A94ED071A94ED050AF0EE81
:10260000680A07F0C7FA84ED050A94ED071A94EDFD
:10261000060AF0EE480A07F0BDFA84ED060A8CE7D8
:1026200000850020C47E0020A88400201CB5012164
:10263000102003F02FF91020009000208DF80400E6
:1026400003208DF8050001208DF807006946024837
:1026500000F0FEF91CBD00000010024008B5012189
:10266000084603F02FF90121084603F02BF9012158
:10267000022003F027F94FF08040C1130090082397
:10268000024A034800F054F808BD0000000402406C
:102690000000024008B50121022003F013F90121D6
:1026A000084603F00FF90121084603F00BF904482E
:1026B0000090044880230246402100F039F808BD0C
:1026C000000400400000024008B50121042003F08E
:1026D000F9F80121022003F0F5F80121022003F0AE
:1026E000F1F804480090044880230246402100F09D
:1026F0001FF808BD000800400004024008B5012191
:10270000082003F0DFF80121084603F0DBF801217F
:10271000084603F0D7F80448009004480223024614
:10272000012100F005F808BD000C00400000024047
:102730002DE9FF4F89B04FF003098DF805904FF058
:10274000020A8DF804A04FF001080F4600918DF8A1
:1027500006801E469346169C8DF8078069460998A8
:1027600000F076F98DF805908DF804A08DF80680BC
:1027700000968DF807806946584600F069F93A4896
:1027800084420DD0B4F1804F0AD03848844205D03D
:102790003748844202D03748844203D1022519E0E9
:1027A000012517E03448844208D03448844205D0DB
:1027B0003348844202D03348844201D1032509E0E2
:1027C0003148844205D03148844202D030488442A6
:1027D00000D10925002127FA01F0C00703D1491CC7
:1027E000C9B21029F7D32A46099800F0EBF9002165
:1027F00026FA01F0C00703D1491CC9B21029F7D34A
:102800002A46584600F0DEF902A804F0FBF900253C
:102810004FF6FF70ADF808500390ADF81050ADF8CA
:102820000A5002A9204604F0AFF900231A460321FA
:10283000204603F0C2FF05A804F042F8ADF81C5092
:1028400005A9204603F0E6FF0121204603F09AFF88
:102850000021204604F06EF90121204603F098FF84
:102860000DB0BDE8F08F0000000001400004004002
:1028700000080040000C00400004014000400140FE
:10288000004401400048014000180040001C004086
:102890000020004072B6FEE71CB505A0D0E900108C
:1028A000CDE9001069460448FEF77EFD1CBD00001E
:1028B00001010101010101017856341210B5002017
:1028C00003F00EF9214C411C00D0E060012003F020
:1028D00007F9411C00D06060022003F001F9411C9F
:1028E00000D0A060032003F0FBF8194C411C00D07D
:1028F0006063042003F0F4F8411C00D0E06294ED22
:102900000B0AB5EEC00AF1EE10FA04D310EE100A6D
:102910001049884203DD9FED100A84ED0B0A052063
:1029200003F0DEF8411C4FF0FF3402D0214603F0E3
:10293000D7FC062003F0D4F80146401C04D0204602
:10294000BDE8104003F0CCBC10BD0000B47E0020F8
:102950000085002000401C460000FA4310B50178B5
:10296000002488B0012920D1002101700BF0ECF97E
:102970001C216846FDF79BFC0D48C1680091416829
:102980000191806802900B48416B0391C06A0490EA
:102990000948016D0591406D06900721684607F0D2
:1029A0005FFB401CC4B20BF00BFA08B0204610BD10
:1029B000B47E002000850020A88400201CB50022E1
:1029C000009102218DF804108DF8062003228DF865
:1029D00005208DF80710694600F03AF81CBD00008C
:1029E0002DE9FC410121082002F054FF01210820BB
:1029F00002F050FF02248DF8044000268DF8066096
:102A00000327DFF848808DF80570012500948DF8C4
:102A100007506946404600F01BF88DF804408DF8D9
:102A200006608DF8057000958DF8075069464046A0
:102A300000F00EF809220121404600F0C3F80922F7
:102A40000021404600F0BEF8BDE8FC81000C0240C9
:102A5000F0B5002201274FF0030C0B6807FA02F5CE
:102A60002B40AB422CD1066853000CFA03F4A6436A
:102A700006600E79D0F800E09E4046EA0E06066039
:102A80000E79012E01D0022E12D18668A6438660EF
:102A90004E79D0F808E09E4046EA0E068660466809
:102AA000AE43466045688E799640B6B23543456080
:102AB000C568A543C560CC799C40C3681C43C4600D
:102AC000521C102AC9D3F0BD1CB50022009101216F
:102AD0008DF804108DF806208DF805208DF807106C
:102AE0006946FFF7B5FF1CBDFEB500250C4606463E
:102AF0008DF808500AE09DF8080024FA00F0C0079D
:102B000008D19DF80800401C8DF808009DF80800C9
:102B10001028F0D3204900208A420DD0B2F1804F16
:102B20000AD01E498A4205D01D498A4202D01D4959
:102B30008A4203D1022019E0012017E01A498A4293
:102B400008D01A498A4205D019498A4202D0194947
:102B50008A4201D1032009E017498A4205D017496A
:102B60008A4202D016498A4200D109209DF80810F5
:102B70000246304600F026F802208DF804008DF859
:102B8000065001218DF807108DF805000094694664
:102B90003046FFF75DFFFEBD00000140000400402D
:102BA00000080040000C00400004014000400140CB
:102BB000004401400048014000180040001C004053
:102BC000002000404B07DB0E9A40C90810B500EB0F
:102BD0008100016A0F249C40A1430162016A1143F4
:102BE000016210BD0183704730B40B46002123FA07
:102BF00001F4E40703D1491CC9B21029F7D3174CDB
:102C0000A2420DD0B2F1804F0AD0154CA24205D09D
:102C1000144CA24202D0144CA24203D1022319E068
:102C2000012317E0114CA24208D0114CA24205D05A
:102C3000104CA24202D0104CA24201D1032309E061
:102C40000E4CA24205D00E4CA24202D00D4CA24224
:102C500000D1092330BC1A46FFF7B4BF0000014081
:102C60000004004000080040000C00400004014047
:102C7000004001400044014000480140001800406D
:102C8000001C00400020004070B5D04000F0010062
:102C90000C460870097B0026012505293AD2DFE899
:102CA00001F00337091D330088B30CF0A9F8606008
:102CB00002200AE00CF0A4F86168401AA0602178B4
:102CC00029B1B0F57A7F25D90420207322E032287B
:102CD0001FD30CF095F860600320F6E70CF090F835
:102CE00061684FF4C872401AA0602178012904D0AD
:102CF00090420FD32573012070BD9042FAD2322842
:102D000008D92573022070BD2573032070BD01E032
:102D100000B926730020F9E731B507239DF80010AC
:102D20000122094C2046FDF739FF2046FDF770FFD0
:102D300002212046FDF705FF0028F9D02046BDE816
:102D40003840FDF7FBBE0000002001402DE9F041B6
:102D500000250E4607462C4605E03846FFF7DCFF07
:102D6000641C0544E4B2B442F7D3B5FBF6F080B27C
:102D7000BDE8F08132483049DFED2E1A90ED0B1A94
:102D80004A78DFED2E0AB1EE410A092A24D2DFE8A3
:102D900002F02305080B1013181B200080ED011A08
:102DA0000CE080ED011A01E0C0ED010A80ED020A9D
:102DB00025E080ED010AF9E780ED010AC0ED020A85
:102DC0001DE080ED010A01E0C0ED010A80ED021A6C
:102DD00015E080ED011AF9E7C0ED010AC0ED020A25
:102DE000C0ED030A0979012902D0022903D006E0C7
:102DF000C0ED031A03E09FED130A80ED030AD0ED46
:102E0000010ADFED111A80EEA10A80ED010A90EDB2
:102E1000022AC2EE210A9FED0D2AC1EE021AC0ED70
:102E2000020A90ED031A21EE811A80ED031AFFF7D2
:102E300057BB0000DB0F493FD50000200000000019
:102E400000850020DB0F49BF00007A440000FA43F0
:102E50002DE9F04100202DED028B02F021FE074606
:102E6000012002F01DFE0646022002F019FE054672
:102E7000032002F015FEDFF8CC8004460121D8F8CB
:102E800034000BF0A5FBB0EE408A0021D8F83400E6
:102E90000BF09EFB08F13800417859B9416839447C
:102EA0004160816831448160C168491BC16001692A
:102EB000091B0161642017FB00F000EE900A224814
:102EC0006421F8EEE00A90ED041AC0EE811AD0ED0C
:102ED000020A61EEA01A81EE882A80ED072A16FB0D
:102EE00001F101EE901A6FF06301B8EEE12AC2EE33
:102EF000011A61EEA01A81EE882A80ED0A2A15FBDC
:102F000001F101EE901A6FF06301B8EEE12AC2EE12
:102F1000011A61EEA01A81EE802A80ED0D2A14FBC1
:102F200001F101EE901AF8EEE11A81EE812A62EECB
:102F3000200A80EE801A80ED101ABDEC028BBDE8ED
:102F4000F081000000850020A884002010B5082032
:102F5000FFF7E2FEFDF764FB9FED0B1B53EC112B1B
:102F6000FDF76CFA9FED0A1B53EC112BFDF766FA87
:102F70009FED091B53EC112BFDF760FAFDF770FB79
:102F800000EE100A10BD00006666666666660A40BE
:102F90000000000000002640000000000000303F5C
:102FA000D0F8DC0305F0F5BAD0F8DC0305F007BB78
:102FB000006805F0C7BF006805F0C8BFC1EB01118C
:102FC00000EB8100002200F81A2F4270C272827258
:102FD00010467047C1EB011100EB810090F84C00E6
:102FE0007047C1EB011100EB8100806B704710B599
:102FF000044690F8D403012809D0012084F8D403B2
:10300000206805F0AEFF002084F8D40310BD022034
:1030100010BD2DE9FF4F83B00546DDE9117690F82C
:10302000D403DDF8408093468A4601281CD0CAEBC1
:103030000A10012305EB800485F8D4334FF0000912
:1030400084F819900698207584F815A084F82670E5
:103050000BF07F00A07551462846FFF7AFFF5FEAEF
:103060000B6005D5E37505E0022007B0BDE8F08FE1
:1030700084F81790286805F069FF012F06D1B8F190
:10308000010F03D110B9BC2E00D9BC2684F81880DA
:10309000B0B22085CDF80080CDE9017028685A468D
:1030A0005146069B05F0C8FF85F8D493DDE7D0F8BC
:1030B000DC0305F0FBBA2DE9F0030E46DDE906C995
:1030C000DDE90874C1EB061100EB81010225CA7528
:1030D00081F82630BCF1000F0AD081F82A50002474
:1030E00063B1012B31D0022B28D0032B16D125E060
:1030F0004FF0030881F82A804C76F0E7BCF1010F0D
:103100000CD11AB18A7E012A19D007E0D7B9012261
:1031100081F83D2000E0C2B181F82A50C1F82C901E
:103120004F6381F84C408C634E7581F84D40827935
:103130000068BDE8F003143106F00EB812B191F842
:103140003C20E8E791F83D20E5E781F82A40E5E7F3
:103150002DE9F04104460068064605F0FEFE012810
:1031600076D1206806F0B2F9002871D0206806F008
:10317000ADF9800203D521684FF400104861206842
:1031800006F0A4F9C00203D521684FF4801048610D
:10319000206806F09BF9400103D521684FF080605C
:1031A0004861206806F092F9800702D52168022064
:1031B0004861206806F08AF9800018D521684FF030
:1031C00000504861D6F84004C00710D110213046A5
:1031D00005F078FE304605F059FE607A022803D1EA
:1031E0000121206806F04EF92046FFF7DDFE206839
:1031F00006F06CF9C00102D5204600F01FFC2068E3
:1032000006F064F9000705D5204600F0BAF82168F9
:1032100008204861206806F059F9800123D520680C
:1032200005F096FF074600254FF0010814E005F071
:103230000F0108FA01F038420DD006EB4510D0F826
:103240000005E9B20004204603D500F0C6F802E00C
:103250001CE000F080FA6D1C6079A842E7D8216874
:103260004FF000704861206806F030F9C043C00696
:103270000CD42068816921F010018161204600F0A2
:1032800027FC2068816941F010018161BDE8F0816F
:10329000F8B5040005D094F8D5032568002610B1D0
:1032A00006E00120F8BD84F8D463204600F028F839
:1032B000032084F8D503B5F1A04F00D1A671206892
:1032C00005F0B0FD207C8DF8000094E80F0005F0BB
:1032D00049FD022560B90121206806F033F938B9AB
:1032E000207C8DF8000094E80F0006F063F810B120
:1032F00084F8D553D5E7012084F8D5030020F8BD24
:103300003EB50121084602F0C5FA0121802002F0F5
:10331000CDFA4FF4C050009002208DF80400032035
:103320008DF80500104D00248DF8074069462846A9
:10333000FFF78EFB0A220B212846FFF743FC0A22E7
:103340000C212846FFF73EFC43208DF8080005209D
:103350008DF809008DF80A4001208DF80B0002A8B5
:1033600001F0A8FA3EBD000000000240D0F8DC03E6
:1033700005F0B9B9D0F8DC0305F0B9B9006806F07A
:10338000C8B8D0F8DC0305F05AB910B5044690F877
:10339000D40301280DD0012084F8D4030121206832
:1033A00005F058FD206805F06BFD002084F8D4037B
:1033B00010BD022010BD10B5044690F8D4030128BA
:1033C00009D0012084F8D403206806F0E9F8002031
:1033D00084F8D40310BD022010BD2DE9F05F05462E
:1033E00000680E46074606F069F8C6EB061140076E
:1033F0004FF007084FF0040905EB810401D548465A
:1034000033E03146286806F059F8C0054FF0080A45
:1034100008D507EB46114FF48070C1F8080584F811
:103420004DA028E03146286806F048F8000705D589
:1034300007EB4611C1F808A506200CE031462868C4
:1034400006F03CF8400509D507EB46114FF48060C3
:10345000C1F80805092084F84D000CE031462868C1
:1034600006F02CF800060AD5802007EB4611C1F8BB
:10347000080584F84D803146286805F072FD314614
:10348000286806F01BF880052868314604D505F049
:1034900068FD4FF4007059E106F010F8C0074FF0D6
:1034A000200B4FF0010A4FF000084ED007EB4617F3
:1034B000C7F808B5E07E012807D184F81B80D7F84B
:1034C000040520F48030C7F80405A87930B1206BDA
:1034D000D7F81015C1F31201401AA06384F84DA06B
:1034E000C4F844805246C7F808A594F8260030B1C5
:1034F000022804D003280AD0012808D013E031465E
:10350000286805F02EFD1020C7F808050BE0D7F855
:10351000000540F00050C7F8000584F84C20314603
:103520002846FFF7C4FDA879012807D1208DA16B9B
:103530000144491EB1FBF0F0C00704D014F83C0F61
:1035400080F001002070BDE8F09F3146286805F04A
:10355000B5FF80060CD507EB4611C1F808B5A07E73
:103560000128F0D184F81BA0032084F84D00B4E0BA
:103570003146286805F0A2FF80074FF0050B75D58E
:1035800007EB46100222C0F8082594F84D100129D7
:1035900016D0062919D007291CD009291AD00529C7
:1035A00033D0032963D004297DD008297ED0022995
:1035B000C9D094F84C2031462846FFF778FDC2E781
:1035C00084F84D2084F84CA0F3E784F84D2084F86B
:1035D0004CB0EEE784F84D20616C491C616402290F
:1035E00010D9C4F84480A27E4146012A07D1E17671
:1035F0002177D0F8041521F48031C0F8041584F83F
:103600004C90D6E784F84C2022E084F84D20E17EEF
:103610000129CED194F826100329F3D1A16C491CBD
:10362000A164022911D9C4F8488084F81B80616C18
:10363000032901D284F81CA0D0F8041521F48031AC
:10364000C0F8041584F84C9002E084F84C20B0E7F0
:1036500094F8261009B10229ABD1D0F8001521F059
:10366000804141F00041C0F80015A2E724E084F851
:103670004D20E17E01299CD184F84C20D0F804151E
:1036800041F48031C0F80415D0F80C1541F0400128
:10369000C0F80C15D0F80C1521F02001C0F80C155D
:1036A000D6E700E002E084F84D20ABE784F84D2037
:1036B000606C401C6064A2E73146286805F0FEFE9D
:1036C000400610D507EB46114020C1F8080584F8E4
:1036D0004DB0A07E08B9C4F8448031462868BDE8E2
:1036E000F05F05F03EBC3146286805F0E7FEC006F5
:1036F0007FF565AF94F82600032803D028B102288F
:1037000003D00FE0C4F8448006E0C4F84480A879F0
:1037100010B1E07E012818D184F84D903146286818
:1037200005F01FFCE07E01280FD107EB461084F85E
:103730001B80D0F8041521F48031C0F80415D0F8AE
:103740000C1541F02001C0F80C15102007EB4611B4
:10375000C1F80805F7E62DE9F05F054600680F4659
:10376000064605F0ABFEC7EB071140074FF0040A11
:1037700005EB810405D506EB4711C1F808A5072024
:1037800089E03946286805F099FE80064FF0000868
:103790004FF001094FF0020B28D506EB471120200E
:1037A000C1F80805607E0326012809D184F8198034
:1037B00084F84CB084F84D603946286805F0D1FB98
:1037C000A07E012810D1E07E00280DD194F82600BB
:1037D000012801D084F81B9084F84D603946286890
:1037E00005F0BFFBC4F84480BDE8F09F3946286867
:1037F00005F064FE800506D506EB47114FF4007016
:10380000C1F8080549E03946286805F057FEC007A9
:1038100020D0C4F844803946286805F04FFE4006A1
:1038200006D506EB471184F819904020C1F8080529
:10383000E07E48B106EB471084F81B80D0F80415F1
:1038400021F48031C0F8041506EB47114846C1F851
:10385000089520E03946286805F030FE40060ED570
:10386000052084F84D00A07E08B984F81990C4F8AA
:1038700044803946286805F074FB402028E039462A
:10388000286805F01BFE00070DD506EB4711082040
:10389000C1F80805062084F84D0039462868BDE8BF
:1038A000F05F05F05EBB3946286805F007FEC006EC
:1038B00013D5C4F8448084F84DA0607E18B9207EEA
:1038C00008B984F819903946286805F04AFB102099
:1038D00006EB4711C1F8080586E73946286805F068
:1038E000EDFD00061CD5A87970B1606C401C6064C9
:1038F000022811D9C4F84480524684F84CA03946B5
:103900002846FFF7D4FB09E0072084F84D0039462C
:10391000286805F026FB01E084F84CB08020D7E74A
:103920003946286805F0CAFD400509D5092084F804
:103930004D003946286805F014FB4FF48060C7E756
:103940003946286805F0BAFD8007C5D506EB471152
:103950005A46C1F808B594F84D00012817D003283D
:103960003AD0042840D005284ED006284FD007284A
:1039700001D00928B0D184F84D20606C401C6064EF
:1039800002284AD9C4F8448084F84CA04FE084F857
:103990004D2084F84C9094F82600022801D003288A
:1039A00045D1A87928B994F83D0080F0010084F849
:1039B0003D00A87901283AD1606B20B3218D0844DD
:1039C000401EB0FBF1F0C00731D094F83D0080F00C
:1039D000010084F83D002AE084F84D20E07E0128B3
:1039E00025D184F84C2022E084F84D2084F84C2026
:1039F000E07E01281BD184F81B80D1F8040520F457
:103A00008030C1F8040512E084F84D20E9E784F81D
:103A10004D20052084F84C0009E084F84C20D1F8B2
:103A2000000520F0804040F00040C1F8000594F807
:103A30004C2039462846FFF73AFBD5E67CB50468AA
:103A40000546D4F840040190D4F8400420F02E003C
:103A500000900198800709D50198C00702D0284638
:103A6000FFF79EFA009840F00200009001980007CE
:103A700024D5009840F008000090019840071AD51E
:103A8000687A022803D0E87901280CD00FE0019869
:103A9000C0F341400228286803D0012105F0F2FC60
:103AA00005E00221FAE74EF66020C4F80404284637
:103AB000FFF760FC02E02846FFF758FC01988006FB
:103AC000009802D540F020000090C4F840047CBD6E
:103AD0002DE9F041024600680746016AC1F34343FD
:103AE00001F00F06C1F30A15022B2ED1002D2CD0A8
:103AF000C6EB061102EB8104E16A002925D0A26B16
:103B0000636B2A449A4222D82A4605F0E3FCE06A15
:103B10002844E062A06B2844A06307EB4610D0F86D
:103B20001015228DC1F3C941AA420ED100290CD033
:103B3000D0F8001521F0804141F00041C0F8001597
:103B400014F83C0F80F001002070BDE8F0810420E3
:103B500084F84C00F9E7000070B541780278DFED99
:103B60002A0A01EB022109B200EE101A2749B8EE29
:103B7000C00A80EE201A9FED260A81ED071A81ED1A
:103B8000080A4279037902EB032212B201EE102AED
:103B9000B8EEC11AC1EE201AC1ED091A827902F0FD
:103BA0000105CD718279C2F340160E708279C2F39D
:103BB00000134B7082793344C2F3C004CC70827915
:103BC000C2F380028A7022449A180A7100D01DB193
:103BD00081ED070A81ED090AC079802809D9C0F56D
:103BE0008070A0EB0010400000EE100AB8EEC00A92
:103BF00006E0C0EB0010400000EE100AB8EE400AEC
:103C000081ED030A70BD000000007A44C47E0020EC
:103C100000000000FEE7000070B50D4C0025C4F860
:103C2000A4520C48016821F440310160016841F45C
:103C300080310160C4F8A052012004F5287408F016
:103C40000BF90120606008F007F9656070BD0000A5
:103C500000804042000402402DE9FC410121022085
:103C600001F018FE0121022001F014FE01248DF85C
:103C7000044000254FF400708DF8065003260F4FC6
:103C800000908DF805608DF8074069463846FEF7CC
:103C9000DFFE8DF8044020028DF8065000908DF86C
:103CA00005608DF8074069463846FEF7D1FE0448A6
:103CB000C0F8A442C0F8A042BDE8FC810004024064
:103CC0000080404270B50D4C0026C4F8A4620C4838
:103CD000016821F440310160016841F480310160E4
:103CE0000125C4F8A052284604F5287408F0B4F859
:103CF0006560012008F0B0F8666070BD0080404249
:103D0000000402402DE9F04781461848002501686B
:103D100021F44031016001680160154E2C462F46A8
:103D20004FF00108C6F8A472012008F095F8C6F813
:103D3000A4826806D6F82012000E11B140F00105E9
:103D400001E020F00105012008F086F8641CE4B2CF
:103D5000082CE7D3B9F1000F04D0FFF7B3FF2846D2
:103D6000BDE8F087FFF758FFF9E7000000040240C4
:103D70000080404270B50D46044600F01BF8204616
:103D800000F0B0F800F05EF8284600F0ABF800F064
:103D900059F800F00FF844F0010000F0A3F800F02B
:103DA00051F80120FFF7AEFF044600F02BF8204643
:103DB00070BD000070B51148016821F44031016008
:103DC000016841F4803101600D4C0120C4F8A0026B
:103DD000D4F8201200290FD0C4F8A40208F03CF84F
:103DE0000025C4F8A052D4F82002002804D10120F4
:103DF00008F032F8C4F8A45270BD0000000402407C
:103E0000008040420D4810B5016821F44031016046
:103E1000016841F480310160094C0020C4F8A4021B
:103E2000C4F8A002012004F5287408F015F8012058
:103E300060602060BDE8104008F00EB80004024049
:103E40000080404270B512480024016821F44031DE
:103E50000160016801600F4D0126C5F8A06230467F
:103E600007F0FAFFC5F8A46207E0641CE4B2322C44
:103E700003D9FFF7C7FF002070BD012007F0ECFF5A
:103E8000D5F820020028F0D1C5F8A402012070BDA9
:103E900000040240008040422DE9F0411D461446D6
:103EA0000F468046069EFFF765FF621CFF21C4F1A6
:103EB000080301FA02F22B445B1ED9400A43C5F104
:103EC00008018E40D2B2F1B2C4F10703D9401040CC
:103ED00040EA01023946404600F034F80120BDE8CE
:103EE000F08100002DE9F04105461448016821F4F5
:103EF00040310160016841F480310160104E0027BB
:103F0000C6F8A4723C464FF00108E809C6F8A002C2
:103F10006806050E012007F09FFFC6F8A482012065
:103F200007F09AFFC6F8A472012007F095FF641C01
:103F3000E4B2082CE9D3BDE8F0810000000402409F
:103F40000080404270B515460E460446FFF732FF2A
:103F50002046FFF7C7FFFFF775FF3046FFF7C2FFA8
:103F6000FFF770FF2846FFF7BDFFFFF76BFFFFF776
:103F700049FF012070BD00000F4820B5811C021DC3
:103F800008F002F80D484068B0F57A7F12DB0A4964
:103F90001E39CA8B8A810B8CCB81488C08820D8894
:103FA000521BCA834A889A1A0A848A88801A00F5A2
:103FB00080404884204620BDBE850020A87D00208A
:103FC0000E4820B5811C021D08F04EF80C484068D0
:103FD000B0F57A7F10DB094918390A8B4A824B8B7E
:103FE0008B82888BC882CD88521B0A830A899A1AD1
:103FF0004A834A89801A8883204620BDB8850020DC
:10400000A87D00200021D020FFF7B4BE08B507F03E
:10401000A1FF0F4F0D4C4FF47A7507F1180807F107
:104020001E0600900A2168460AF00AF86068A84255
:1040300007DA4146B81D00F00DF83146044800F09B
:1040400009F8FFF799FFFFF7BBFFEBE7A87D00201A
:10405000A08500200A8802804A8842808988818061
:10406000704730EEC00A44F2A01280ED000AD0ED95
:10407000010A30EE601AD0ED030AF8EEE00A61EEB4
:10408000200A90ED041AB8EEC11A41EE000A90ED34
:10409000021AB8EEC11A70EE810AFDEEE00A10EEC7
:1040A000901A8160914202DC5242914200DA8260B1
:1040B00080ED010A806870470F48D0ED011A90ED3D
:1040C000002A71EE821A30EE802A30EE600AF0EE9D
:1040D000422AF0EE400A41EE612A41EE610A01EE09
:1040E000212A01EE210AC0ED062AC0ED090A80ED61
:1040F0000C2A80ED0F0A7047A88400202B4908681D
:10410000401C08602A49642801D300200870294A0D
:1041100029489378DBB30978C9B3B2F807100129AD
:1041200003D0022904D031B109E09FED240A04E054
:104130009FED230A01E09FED230A80ED010A224949
:10414000B2F803208B899A1A00EE102AB8EEC00A42
:1041500081ED050A0A8900EE902A4A89F8EE601A74
:10416000DFED1A0A81EEA01A01EE902AB8EE612A5C
:10417000C2EE201AD1ED060A21EE001A70EE600A96
:1041800001EEA01A80ED031A81ED060A08E0FFE7B0
:104190009FED0F0A80ED010A80ED020A80ED030A0F
:1041A000001D90EC030AFEF79BB900008C01002073
:1041B0007C010020A0870020008500209A99193FEB
:1041C0009A99993ECDCCCC3D2801002000007A443C
:1041D000000000001CB50121042001F05BFB202041
:1041E000009000208DF8040003208DF805000120C8
:1041F0008DF8070069460248FEF72AFC1CBD000046
:104200000008024000EE100AB7EE001A70B5F8EE92
:10421000400A3948394D002281EE200ADFED350A87
:10422000437820EE200A4BB1027042808280C28027
:104230000281D5F81432012B00D14270D5F8143226
:10424000012463B9437853B90470C3885B1C9BB2E3
:10425000C3808B4203D9C28083885B1C8380DFEDDF
:10426000280A868880EE801AFCEEC10A10EE903A89
:104270009BB2B34202D24470032070BD0378B3B343
:10428000D5F81432012B09D103895B1C9BB2038141
:104290008B4203D902814188491C4180DFED190A14
:1042A00080EE801AFCEEC10A10EE901ADFED160ABD
:1042B0008AB241888A420ED280EE801ABCEEC11AC0
:1042C00011EE102A92B28A4205D9D5F8141271B9AA
:1042D0004470022070BD80EE801ABCEEC10A10EE60
:1042E000102A92B28A4203D24470012070BDFFE7C7
:1042F0000020FBE700007A44BC000020000041429F
:104300000000FA43000048420000964330EE202AA5
:104310001448154932EE012A72EE212AB5EE002A20
:1043200062EE822AC0ED002A70EE602AB1EE400AE9
:1043300030EE600A72EE812A30EE010A72EEE12A56
:1043400030EE210A62EE822AC0ED012A20EE020A36
:10435000D1EC022A72EE832AC0EE220AC0ED020AD4
:104360007047000054870020A884002000221249D2
:10437000012370B101280FD002280FD0032811D0DB
:10438000042811D0052813D006280AD10A704A70D3
:1043900006E00A704B7009E00A7000E00B704B7089
:1043A0008A7070470B70F2E70B7002E08B707047F9
:1043B0000A704A70FAE70000C800002030B41949BA
:1043C000194A0C78137851789278022C0DD0012C70
:1043D00009D1164C01281DD00120C4F8B802C4F838
:1043E000B402C4F8BC0230BC7047012803D00022DC
:1043F0001146104605E03BB1002039B100213AB129
:10440000002230BC00F014B8FF20F6E7FF21F6E7E9
:10441000FF22F6E7C4F8B832C4F8B412C4F8BC22DC
:10442000E1E70000A87D0020C80000200080414294
:1044300070B514460D4608F0A9FF074B18602846D2
:1044400008F0A4FF05498863204608F09FFF024951
:10445000091F086070BD000038180040004001408E
:1044600070B53C21D020FFF785FC04463B21D020CD
:10447000FFF780FC04EB0020184C3E21E083D020A5
:10448000FFF778FC05463D21D020FFF773FC05EBD4
:10449000002020844021D020FFF76CFC05463F21FE
:1044A000D020FFF767FC05EB00200D4900B26084C7
:1044B0004968B1F57A7F0FDBE18BA181228CE28123
:1044C00020822388C91AE1836188511A2184A18836
:1044D000401A00F58040608470BD0000A085002077
:1044E000A87D002070B54421D020FFF743FC04468E
:1044F0004321D020FFF73EFC04EB0020174C46215F
:104500002083D020FFF736FC05464521D020FFF759
:1045100031FC05EB002060834821D020FFF72AFC06
:1045200005464721D020FFF725FC05EB00200C496C
:1045300000B2A0834968B1F57A7F0DDB218B6182DF
:10454000628BA282E082E388C91A21832189511AF1
:1045500061836189401AA08370BD0000A08500209E
:10456000A87D0020BC2801D3012210E0622801D3DD
:1045700002220CE02A2801D3032208E0142801D3E8
:10458000042204E00A2801D3052200E006221A21B1
:10459000D020FFF7D7BC10B504464FF47A708442A0
:1045A00001D9044602E0042C00D20424B0FBF4F04C
:1045B000401EC2B21921D020FFF7C4FC6008BDE83C
:1045C0001040FFF7CFBF7521D020FFF7D3BB10B548
:1045D00080226B21D020FFF7B5FCC82007F020FC1B
:1045E00000226B21D020FFF7ADFC012000F03AF84B
:1045F000002000F02EF83220FFF7CDFF00223821F6
:10460000D020FFF79FFC00226A21D020FFF79AFC00
:1046100000222321D020FFF795FC80223721D020D3
:10462000FFF790FC7521D020FFF7A4FB682801D08C
:10463000012010BD01226B21D020FFF783FC002256
:104640006C21D020FFF77EFC3220FFF7A4FF002072
:1046500010BD08B50223009004221C21D020FFF7D2
:104660001BFC08BD08B50223009004221B21D020AA
:10467000FFF712FC08BD000008B507F06BFC0F4FF8
:104680000D4C4FF47A7507F1180807F11E060090DB
:104690000A21684609F0D4FC6068A84207DA41465E
:1046A000B81DFFF7D7FC31460448FFF7D3FCFFF7EE
:1046B000D7FEFFF717FFEBE7A87D0020A0850020BD
:1046C000124910B51048086001221149114803F041
:1046D000FBFE08B1FEF7DEF80F490E4804F0E1FAE0
:1046E00008B1FEF7D7F80D490A4804F0DAFA08B124
:1046F000FEF7D0F8074804F01BFB002803D0BDE804
:104700001040FEF7C7B810BDE4000020E000002014
:10471000458D0008008C0020D8010020F801002001
:10472000FEE7000070B50121022001F0B3F801217D
:10473000022001F0AFF80121042001F0ABF80121C3
:10474000102001F0A7F80121082001F0A3F80121B1
:10475000082001F09FF80121042001F09BF80121BD
:10476000084601F097F81E4D4FF400512846FEF719
:10477000ABF9AC1421462846FEF7A6F9194D0121E4
:104780002846FEF7A1F9E1001748FEF79DF9174EFC
:10479000A1103046FEF798F921463046FEF794F90D
:1047A00021462846FEF790F921111148FEF78CF9B1
:1047B00010490020C1F8B402C1F8B0020E4AC2F894
:1047C00080020E49C1F8BC020D49C1F8A802C1F827
:1047D000B002C2F8B0020B49C1F8A00270BD0000DF
:1047E000000402400008024000100240000C024099
:1047F000000002400080404200004142000042426E
:1048000000804142000040422DE9FE430C4605462F
:10481000FFF788FF0121022001F060F80121042048
:1048200001F038F80121022001F058F8012104209C
:1048300001F030F80121022001F050F8012104209C
:1048400001F028F80121022001F048F8012104209C
:1048500001F020F8144FDFF85480CDE90054002611
:1048600004233A46D9014046029602F0D5F9CDE933
:10487000005403233A46B9154046029602F0CCF99B
:10488000CDE9005402233A4680214046029602F0C8
:10489000C3F9CDE9005401233A464021404602962F
:1048A00002F0BAF9BDE8FE830004014000080240AE
:1048B0007047000030B50F23C27801780125FAB1A6
:1048C000144A126801F1E02102F4E062C2F5E062EC
:1048D000C2F30722C2F10404D3404278A240847894
:1048E0001C401443220181F80024007800F01F01CD
:1048F0008D404009800000F1E020C0F8005130BD3B
:1049000001F01F0085404809800000F1E020C0F858
:10491000805130BD0CED00E00249084302490860B7
:10492000704700000000FA050CED00E030B40021F3
:10493000084B0A46002003EBC004401CC0B262547E
:104940008028F8D3491CC9B20829F3D330BC00F041
:1049500011B90000887F002010B50021074B0A46DE
:10496000002003EBC004401CC0B262548028F8D37E
:10497000491CC9B20829F3D310BD0000887F00206C
:104980002DE9F0471F4690460E4682460025DDF889
:10499000209011E03146504600F034F9544607E0CB
:1049A00019F8050001216D1C00F0D2FB641CE4B273
:1049B0004445F5D3761CF6B2BE42EBD3BDE8F08792
:1049C00010B57F2816D83F2914D80723A3EBD103AD
:1049D00001F00701C1F107040121A140064CDBB23F
:1049E00004EBC000002AC25CC9B201D00A4300E057
:1049F0008A43C25410BD0000887F00207CB501218D
:104A0000082000F047FF01258DF804500024802085
:104A10008DF80640514E00908DF805408DF8074006
:104A200069463046FEF714F88DF8045040208DF8A2
:104A3000064000908DF805408DF8074069463046E5
:104A4000FEF706F88DF8045020208DF806400090FF
:104A50008DF805408DF8074069463046FDF7F8FFB0
:104A60008DF8045010208DF8064000908DF8054018
:104A70008DF8074069463046FDF7EAFF384EC6F824
:104A80009442642006F5257607F0CAF935600021C6
:104A9000AE2000F05DFB0021D52000F059FB002185
:104AA000502000F055FB0021A82000F051FB002110
:104AB0003F2000F04DFB0021D32000F049FB0021F6
:104AC000084600F045FB0021402000F041FB00219A
:104AD0008D2000F03DFB0021142000F039FB002167
:104AE000202000F035FB0021022000F031FB0021E6
:104AF000A12000F02DFB0021C02000F029FB0021A7
:104B0000DA2000F025FB0021122000F021FB00211B
:104B1000812000F01DFB0021EF2000F019FB002197
:104B2000D92000F015FB0021F12000F011FB00213D
:104B3000DB2000F00DFB0021302000F009FB0021FC
:104B4000A42000F005FB0021A62000F001FB0021BD
:104B5000AF2000F0FDFAFFF7E9FE7CBD000C02403B
:104B600000804142012101704170002181700321C8
:104B7000C170704770B5104E002505F1B000C0B28D
:104B8000002100F0E5FA0021084600F0E1FA0021DA
:104B9000102000F0DDFA002406EBC4000121405D86
:104BA00000F0D6FA641CE4B2802CF5D36D1CEDB293
:104BB000082DE2D370BD0000887F002070B5104E34
:104BC000002505F1B000C0B2002100F0C1FA0021BB
:104BD000084600F0BDFA0021102000F0B9FA0024C8
:104BE00006EBC4000121405D00F0B2FA641CE4B29F
:104BF000802CF5D36D1CEDB2022DE2D370BD000008
:104C0000887F002010B50446B031C8B2002100F002
:104C10009FFA102040EA1410002100F099FA04F0E5
:104C20000F00BDE81040002100F092BA2DE9F05FBE
:104C3000203A98460D468346894602F0FF0A002630
:104C40002EE0B8F10C0F08D0174901EB0A1000272D
:104C5000845D200607D50A9A08E014490AEB4A0049
:104C600001EB8000F3E70A9890B1002229465846EC
:104C7000FFF7A6FE6D1C6006EDB2040EA5EB090160
:104C8000414507D10BF101004D4600F0FF0B05E057
:104C90000122EBE77F1CFFB2082FDAD3761CF6B2B5
:104CA0004645CED3BDE8F09F10F700089CF20008FF
:104CB00001490020087070476E0100202DE9FF4F68
:104CC00081B00027DDF838B01D46924680463C464C
:104CD0004FF001094FEA5B062BE0281B401E0A2219
:104CE000C0B2012100E05143401EC0B2FBD2BAFB6A
:104CF000F1F00A21B0FBF1F201FB120027B9691EA5
:104D00008C4201DA48B101273030C2B206FB048080
:104D1000C0B25B46CDF8009006E006FB0480C0B24E
:104D20005B462022CDF800900299FFF77FFF641CBC
:104D3000E4B2AC42D1D305B0BDE8F08FF8B5164669
:104D40000D460446012714E07A2C02D900241035C0
:104D5000EDB23A2D03D900242546FFF7E7FD009771
:104D600032780C2329462046FFF760FF0834E4B26E
:104D7000761C30780028E7D1F8BD0000F8B5A34CC8
:104D800020786178884206D0FFF7D0FDFFF7F2FE69
:104D900020786070F8BD0C259D4F9E4E60700128F4
:104DA00006D0022869D003287ED000287DD020E1DB
:104DB0004FF4BA740A210C20FDF7C8FFB0FBF4F4DD
:104DC000B879B8B194A200210846FFF7B7FF94481C
:104DD000007888B193A200212620FFF7AFFF92A2AE
:104DE00000213C20FFF7AAFF904C2078C1070BD090
:104DF0008FA220E090A2E6E702232246002128208D
:104E00000095FFF75BFFEAE7810701D58CA212E06E
:104E1000410701D58CA20EE0010701D58CA20AE062
:104E2000C10601D58CA206E0810601D58CA202E064
:104E3000400604D58CA232210020FFF77FFF607866
:104E4000C8B18BA232212D20FFF778FF022396ED07
:104E5000130A1A4632214B2007F06CFC75A232214E
:104E60004B20FFF76BFF83A232217820FFF766FF0C
:104E700007F004FBBDE080A2E4E780A20021072048
:104E8000FFF75CFF00953A7801230A210920FFF71C
:104E900015FF00957A7801230A212720FFF70EFFDE
:104EA0000095FA78012301E022E052E00A21452032
:104EB000FFF704FF0095BA7801230A216320FFF76A
:104EC000FDFE72A21E210020FFF738FF71A21E21F5
:104ED0004B20FFF733FFD7ED030A9FED6F1A022334
:104EE0001E2180EE810A1A46084607F023FC80E066
:104EF00000216AA20846FFF721FF6BA20021422091
:104F0000FFF71CFF69A20F210020FFF717FF009594
:104F100096F8482002230F214220FFF7CFFE66A219
:104F20001E210020FFF70AFF654C207806F0EEFFF7
:104F300002461E214220FFF701FF62A22D21002020
:104F4000FFF7FCFE607806F0F7FF02462D214220B5
:104F50004DE05E4D6878012804D0012698B1022802
:104F600015D046E05A4800900723602201212020F6
:104F7000FFF706FD57A232210C20FFF7DFFEBDE848
:104F8000F840FFF71BBEFFF7E7FC267031E01F4932
:104F9000891F8888401C80B288801E2802D3002088
:104FA00088802670FFF7D8FC00214DA20846FFF745
:104FB000C5FE4FA20F210020FFF7C0FEA8780228EF
:104FC0001BD0032819D0042819D0052819D04BA2CA
:104FD0001E210020FFF7B2FE4CA22D210020FFF77A
:104FE000ADFE287801280ED04BA22D215A20FFF7C4
:104FF000A5FEBDE8F840FFF7BDBD48A2E8E74BA21B
:10500000E6E74EA2E4E751A2EFE700006E010020C0
:10501000C47E0020A884002052434D203A000000A6
:105020003885002020580000475A000000850020E5
:10503000524F532020000000545950453A000000C0
:10504000505332202000000041505020200000002A
:10505000522D43202000000043414E20200000003C
:1050600055534152540000004B32313020000000B3
:105070004F46460056000000204F4E004C41202075
:105080004C42202052422020524100006375723A67
:10509000000000004100000000007A444361724DAE
:1050A0006F64653A000000004D454300436172544F
:1050B0007970653A0000000048575F5665723A0003
:1050C000A87D002053575F5665723A00DD0000202E
:1050D0004007010855534220496E69742E2E000086
:1050E00055534220496E6974204F4B2E000000003A
:1050F00050533220496E666F3A000000556E4B6E79
:105100006F776E2044657620000000004461746172
:105110002052656164793A004E6F200057697265CC
:10512000642055534250533200000000322E344761
:1051300020555342505332200000000078626F78AF
:1051400020333630202020200000000059657300F5
:1051500030B500230E4A012411B1C2F8904201E09B
:10516000C2F890320021C2F89C32050602D5C2F87E
:10517000984201E0C2F89832C2F89C424006491CAD
:10518000000EC9B20829EED3C2F8904230BD00002B
:10519000008041420148FDF7DBBF0000208800206D
:1051A00082680021002A01DD521E8260002A01DA95
:1051B000521C8260521C032A02D20021816001210C
:1051C000084670479FED050A002380ED000A80ED38
:1051D000010A8360C0E9031270470000000000006C
:1051E0009FED040A002180ED000A80ED010A816034
:1051F0007047000000000000002900DDC160002AA7
:1052000000DD0261704700002DE9F84301250746E3
:10521000ADF80050204800264670ADF800501F4CF5
:1052200080464FF6FF792DE0BDF80000384202D0ED
:10523000C4F8845201E0C4F88462102006F00CFE29
:10524000C4F88C52052006F007FEC4F88C620520D5
:1052500006F002FEC4F88C52102006F0FDFDD4F8D2
:10526000000230B198F80110BDF80020114388F811
:105270000110102006F0F0FDBDF8001009EA410011
:10528000ADF80000BDF80000FF28CDD9BDE8F84317
:10529000102006F0E1BD00009C8300200000424287
:1052A00070B50020274C05462554401CC0B2092883
:1052B000FAD300F0E3F86678412E03D0202E01D017
:1052C000FF2E07D100F02EF909221F491D48FAF7D9
:1052D000D5FF667000210846225C401C1144C0B214
:1052E000C9B20928F8D3184A1C3A71B11570206860
:1052F00042F8250F60685060207A1072B4F80300FD
:10530000C04380B222F8210C70BD1078401CC0B29E
:1053100010700A280BD90B201070D069C2F8250034
:10532000106AC2F8290092F8240082F82D00D2F801
:1053300025002060D2F82900606092F82D002072CC
:10534000D5E700009C830020140100202DE9FC41DA
:105350000121102000F09EFA0121102000F09AFA9D
:105360000121102000F096FA0121102000F092FA9D
:1053700000258DF8045003208DF805001B4F0124F3
:10538000022600948DF8076069463846FDF760FBF9
:105390008DF804408DF806508DF8055000968DF874
:1053A000074069463846FDF753FB8DF8044004205A
:1053B0008DF8065000908DF805508DF8074069462D
:1053C0003846FDF745FB8DF8044008208DF806505F
:1053D00000908DF805508DF8074069463846FDF776
:1053E00037FB00F09FF8BDE8FC8100000010024090
:1053F000034904200870044902480860704700000F
:10540000DC00002000010020E000002070B5FFF764
:1054100047FF1848184CC1792170017AC1F1FF018A
:1054200061704179A1708079E0700820FCF76AFA18
:10543000FF25002608B1257100E026710920FCF740
:1054400061FA08B1657100E066710A4D0A4E0024E8
:105450000C35083E05EB04112246B088FDF714FC1C
:10546000010002D02046FCF757FA641CE4B20F2C6E
:10547000F0D970BD9C830020000100202DE9FC4183
:1054800000268DF800600125ADF80450224CC4F8C8
:105490008862224F3878FFF7B7FE7878FFF7B4FEBE
:1054A00002208DF800001E4F4FF6FF782CE0ADF87B
:1054B00004501DE0C4F88C52052006F0CDFCC4F861
:1054C0008C62052006F0C8FCC4F88C52D4F80002A7
:1054D00040B19DF80000BDF80410385C08439DF809
:1054E00000107854BDF8041008EA4100ADF804003B
:1054F000BDF80400FF28DDD9102006F0ADFC9DF8B2
:105500000000401C8DF800009DF800000928CED353
:10551000C4F88852BDE8FC8100004242F900002036
:105520009C83002070B500F075F800F073F800F06F
:1055300071F8374C0025C4F88852102004F5227405
:1055400006F08AFC0120FFF75FFE4320FFF75CFEB8
:105550000020FFF759FE0120FFF756FE0020FFF75D
:1055600053FE0020FFF750FE0020FFF74DFE002005
:10557000FFF74AFE0020FFF747FE012626601020B5
:1055800006F06AFC25600120FFF73EFE4420FFF78D
:105590003BFE0020FFF738FE0120FFF735FE032019
:1055A000FFF732FE0020FFF72FFE0020FFF72CFE52
:1055B0000020FFF729FE0020FFF726FE26601020BE
:1055C00006F04AFC2560102006F046FC0120FFF79B
:1055D0001BFE4320FFF718FE0020FFF715FE0020FA
:1055E000FFF712FE5A20FFF70FFE5A20FFF70CFEBE
:1055F0005A20FFF709FE5A20FFF706FE5A20FFF750
:1056000003FE2660BDE87040102006F025BC0000B7
:105610000000424210B50F4C0020C4F88802102050
:1056200004F5227406F018FC0120FFF7EDFD42207E
:10563000FFF7EAFD0020FFF7E7FD0020FFF7E4FD9C
:105640000020FFF7E1FD01202060BDE810401020A0
:1056500006F002BC0000424270B52DED088BDFED74
:1056600077AA9FED77AAB0EE4A9A9FED76BA764C6C
:10567000206841787F3900EE101A0178F8EEC08A70
:10568000C1F17F0100EE101A8178F8EEC09AC1F1E5
:105690007F0100EE101A6D49B8EEC08AB0EEE80A3C
:1056A00010EE102A9FED6A0A8A4201DAF0EE408A73
:1056B000F0EEE90A10EE902A8A4201DAF0EE409A02
:1056C000F0EEC80A10EE902A8A4201DAB0EE408A63
:1056D00060490978052904D002291DD003291BD06F
:1056E0002FE0FDEEE80A10EE901A11BB0179407927
:1056F00009B130B10DE060B100EE100AB8EE409A89
:1057000004E0484200EE100AB8EEC09AF0EE6A8A51
:1057100017E0B0EE409A14E0B0EEC80A10EE101A8E
:105720004D4A91420DDAC1680F20884710B1B0EEA2
:105730006A8A06E02068C1680D20884708B19FED9D
:10574000478AC8EEAA0A464890ED0B0A89EE0A1A63
:1057500060EE800AC8EE2A1A60EE810AC0ED010AE6
:1057600089EEAA1A61EE8B1A21EE001A80ED021A58
:105770009FED3C2AF5EEC00AC0EE022A21EEA20AF5
:10578000F1EE10FA80ED030A03D2B1EE400A80ED8B
:10579000030ADFED351A80EEA10AC1EE210A80ED81
:1057A000010AC0ED020A90ED031AFCF799FE2F489A
:1057B000DFED2F0A2F4DB0F922002F4900EE100A1D
:1057C000B8EEC00A80EE208A95ED070A30EE480A4E
:1057D000B0EEC00A10EE100A88422ADD2748406861
:1057E000B0F57A7F25DD2068826812B310EE100ACA
:1057F0002349884201DA002019E010EE100A2149FD
:10580000884201DD9FED200ADFED200A9FED201A7E
:1058100030EE600A60EE0A0A80EE810AF6EE000AB7
:1058200030EE200ABCEEC00A10EE100AC0B2002111
:10583000904785ED078ABDEC088B70BD0000FE42E5
:1058400000007F43DB0F493FE00000200000A04143
:1058500000000000DC00002017B7D1380000FEC2B5
:10586000008500200000FA4300007A44A085002053
:10587000E1FAD044280100209A99193FA87D002020
:10588000CDCCCC3D9A99993F9A99993FCDCCCC3DBE
:10589000CDCC8C3F044A0029116801D0014300E0BF
:1058A000814311607047000030380240044A0029EB
:1058B000116801D0014300E081431160704700008E
:1058C00034380240044A0029116801D0014300E045
:1058D000814311607047000040380240044A0029AB
:1058E000116801D0014300E081431160704700005E
:1058F00044380240044A0029116801D0014300E005
:1059000081431160704700002438024070B5204B7D
:105910001968204C11F00C0104D06610042903D042
:10592000082903D004601BE0066019E0184A121F22
:105930001168C1F38055116801F03F0115B1B6FB44
:10594000F1F101E0B4FBF1F114681268C4F38814BA
:105950006143C2F30142521C5200B1FBF2F10160FB
:1059600019680F2202EA11110B4A545C0168E140E8
:1059700041601C68072505EA9424145D21FA04F4AB
:1059800084601B6805EA5333D25CD140C16070BDAE
:10599000083802400024F40000000020FEB5012178
:1059A0000220FFF777FF01214020FFF78BFF012145
:1059B0001020FFF76FFF01210804FFF78FFF01217F
:1059C0000220FFF767FF01214020FFF77BFFFF2048
:1059D00007F0DCFC42F20F7480B253250094CDE94D
:1059E0000150144E144F022332469903384603F0F7
:1059F000FBFEFF2007F0CAFC80B2A7210094CDE98E
:105A0000011002230D4A40210D4803F0EDFEFF2056
:105A100007F0BCFC80B20094CDE90150012332466E
:105A20009903384603F0E0FEBDE8FE400020FEF793
:105A30009DBC0000001800400004024000400140EE
:105A400000100240B0EE0C0A80ED0C0A9FED110A26
:105A5000002180ED0B0A9FED100A012280ED070A5C
:105A6000B3EE040A80ED080A9FED0C0AC17080EDC8
:105A7000010A80ED020A80ED030A80ED040A80ED40
:105A8000050A80ED060A817002704170322141637F
:105A9000704700000000FA430AD7A33C0000000052
:105AA000002138B101280BD002280BD003280BD0DD
:105AB000002070474FF08042506A516200B2704738
:105AC000044A02E0044A00E0044A1068116000B28F
:105AD000704700002404004024080040240C0040CB
