:020000040800F2
:10000000680B002049010008572D0008E32700086D
:10001000552D0008D70A0008313A000800000000FA
:10002000000000000000000000000000ED330008A8
:100030004D0D000800000000E1310008EF3300081A
:100040006301000863010008630100086301000800
:1000500063010008630100086301000863010008F0
:1000600063010008630100086301000863010008E0
:1000700063010008D90A0008630100086301000851
:1000800063010008630100086301000863010008C0
:100090006301000863010008630100084F0D0008B8
:1000A00063010008630100086301000863010008A0
:1000B000553400086301000863010008630100086B
:1000C0006301000863010008630100086301000880
:1000D000630100086301000863010008253A000875
:1000E0006301000863010008630100086301000860
:1000F0006301000863010008630100086301000850
:10010000630100086301000863010008630100083F
:1001100063010008313600086301000861340008FB
:10012000630100086301000863010008630100081F
:10013000DFF810D000F06CFC004800476D53000859
:10014000AFF30080680B0020064880470648004750
:10015000FEE7FEE7FEE7FEE7FEE7FEE7FEE7FEE777
:10016000FEE7FEE751340008310100082DE9F041B7
:100170000024061B254671F1000605DA012400273C
:10018000D0EB070067EB0101161E73F1000605DADC
:100190000027D2EB0702012567EB030300F0B3FA57
:1001A00086460E4617469C46AC4204D00025D0EB4E
:1001B000050E65EB010624B10020D2EB000760EBD1
:1001C000030C704631463A466346BDE8F081202A6A
:1001D00004DB203A21FA02F00021704721FA02F3F1
:1001E000D040C2F120029140084319467047D2B274
:1001F00001E000F8012B491EFBD270470022F6E710
:1002000010B513460A4604461946FFF7F0FF20468C
:1002100010BD30B504460020034600E05B1C93424D
:1002200003D2E05CCD5C401BF8D030BDF0B480EA76
:100230000102D40F4200B2EB410F02D2024608463F
:1002400011464A0042D0C30DDDB2C1F3C752AD1A08
:10025000202D35DAC1F3160141F4000204B15242F7
:10026000C5F1200602FA06F12A411044B3EBD05F33
:1002700023D0C4B1012DA0EBC35009DCF0BC4FF07A
:10028000004202EAC352DBB200F5000000F096BA69
:10029000400000F1807000EBC350A0F1807040EA94
:1002A000D170490009E0490841EAC071A0EBC35090
:1002B00000F50000400800EBC350F0BC00F075BA38
:1002C0006142012202EB4101001BF6E7F0BC7047DE
:1002D00081F00041AAE780F00040A7E780EA010230
:1002E00010B502F00043400022D04A001FD0010E9A
:1002F00001EB1261C0F35600C2F3560240F4000055
:1003000042F40002A0FB022000047F39140400D054
:10031000401C50EA124001D44000491EC2B20C06F3
:1003200004EBD010401C4008802A02D003E00020DB
:1003300010BD20F00100002900DA0020184310BD94
:1003400030B480EA010202F0004530F0004221F0B2
:10035000004013D090B1C30DD40DC2F31601C0F309
:100360001600E41A41F4000140F400027D34914289
:1003700001D3641C00E04900002C02DA30BC0020EC
:1003800070474FF400000023914201D3891A0343C0
:1003900040084FEA4101F7D151B1914202D14FF0EB
:1003A000004105E002D24FF0010101E06FF00101D0
:1003B00003EBC450284430BC00F0F7B9420005D02C
:1003C000C0F3C7525242914201DC0020704700EB5B
:1003D000C15070472DE9FE4F804681EA0300C00FEF
:1003E0000C46009021F0004123F00045B8EB0200DC
:1003F000A94105D24046214690461C460B4602467E
:1004000023F00040104347D0270DC7F30A00C3F381
:100410000A510290401A019040286BDAC3F313008E
:1004200040F4801B0098924620B10023D2EB030ACF
:1004300063EB0B0B01985946C0F14002504600F0A7
:1004400093F906460D4650465946019A00F09BF92D
:1004500010EB08006141002487EA115284EAE77337
:100460001A4340D0009A62B3019A012A4FEA075218
:1004700015DC001B61EB02014FF0004202EA07525B
:10048000CDE90042001C41F5801132462B4600F0B8
:10049000D2F903B0BDE8F08F40462146F9E7001BD2
:1004A00061EB0201001C41F5801300185B4120182C
:1004B000A2F5001747EB030140EAD570B6196D416C
:1004C00011E06D084FEA360645EAC0754FEA07525B
:1004D000001B61EB0201001C41F5801149084FEA45
:1004E00030000019514132462B4603B0BDE8F04FB1
:1004F00000F092B90098012240000023D0EB0202E4
:1005000063EBE073009821464FEAE074B8EB00001B
:1005100061EB0401E9E783F000435BE781F0004110
:1005200058E72DE9FE4F81EA030404F0004421F06E
:10053000004100944FF0000B23F0004350EA010407
:100540005ED052EA03045BD0C3F30A54C1F30A55E8
:100550002C44A4F2F3340194A0FB0254C1F3130120
:1005600041F48011C3F3130343F4801301FB0244ED
:1005700000FB034E840A970A44EA815447EA8357F2
:10058000A4FB076802958D0A05FB07854FEA932CAB
:1005900004FB0C542705029D4FEA065847EA16371C
:1005A000B5EB08056EEB070C870E920E47EA811734
:1005B00042EA8312A7FB0201B6EB0B0164EB0004D5
:1005C0002B0D43EA0C335E1844EB1C50DA465146BF
:1005D000E7FB0201C5F313044FEA0B3343EA14535C
:1005E0004FEA0432019C43EA0603A4F10C0402948E
:1005F000009CCDE900B400F01EF903B0BDE8F08F17
:1006000000200146F9E7C10F80EAE0700844CA07FC
:100610009623002100F0D2B896230022114600F064
:10062000CDB800F0004220F00040C10DC0F316002C
:1006300040F400007F2901DA00207047962903DC8E
:10064000C1F19601C84001E096398840002AF4D0F3
:100650004042704720F00040C10DC0F3160040F446
:1006600000007F2901DA00207047962903DCC1F1E0
:100670009601C840704796398840704700F00042A4
:1006800030F000400AD0C10D01F56071C0F31600D2
:1006900042EA0151C2084007114370470020014659
:1006A000704701F0004330B421F0004150EA0102EC
:1006B00006D00A0DA2F56072C1F31301002A02DC14
:1006C00030BC00207047440F44EAC104C100E01868
:1006D00030BC00EBC25000F068B830B50B460146A4
:1006E00000202022012409E021FA02F59D4205D3D1
:1006F00003FA02F5491B04FA02F52844151EA2F17B
:100700000102F1DC30BD2DE9F05F05460020924684
:100710009B4688460646814640241BE028464146C3
:1007200047462246FFF753FD53465A46C01A9141A9
:1007300010D311461846224600F016F82D1A67EB22
:1007400001084F4622460120002100F00DF817EB6A
:1007500000094E41201EA4F10104DFDC4846314669
:100760002A464346BDE8F09F202A04DB203A00FADF
:1007700002F1002070479140C2F1200320FA03F3F8
:10078000194390407047202A06DBCB17203A41FAE4
:1007900002F043EAE07306E041FA02F3D040C2F10E
:1007A000200291400843194670470029A8BF7047AE
:1007B000401C490008BF20F00100704710B4B0FA97
:1007C00080FC00FA0CF050EA010404BF10BC704732
:1007D00049B1CCF1200421FA04F411FA0CF118BF4C
:1007E000012121430843A3EB0C01CB1D4FEA00611B
:1007F0004FEA102042BF002010BC704700EBC350EE
:1008000010440029A4BF10BC7047401C490008BF19
:1008100020F0010010BC704710B5141E73F10004E5
:1008200008DA401C41F1000192185B411A4301D1E2
:1008300020F0010010BD2DE9F04D92469B4611B10C
:10084000B1FA81F202E0B0FA80F220329046FFF76E
:100850008BFF04460F4640EA0A0041EA0B0153466B
:100860005A46084313D0114653EA010019D0C8F183
:1008700040025046FFF7ABFC05460E46504659462F
:100880004246FFF771FF084305D0012004E02046EF
:100890003946BDE8F08D0020054346EAE0762C435A
:1008A00037430A986305E40AA0EB08000022FD0A1A
:1008B00044EA47540A3002D500200146E9E7010521
:1008C00010196941DDE9084500196941BDE8F04D9D
:1008D000A2E72DE9F04D81EA030404F0004B21F07A
:1008E000004514464FF0000A23F0004150EA05028B
:1008F00020D054EA01021DD0C5F30A570246C5F3C1
:100900001303C1F31300C1F30A5640F4801543F4F6
:100910008013A7EB0608101BD64608F2FD3873EBD0
:10092000050002D308F1010801E092185B41B8F11B
:10093000000F03DA00200146BDE8F08D00204FF4DF
:100940008011064684460EE0171B73EB050705D39E
:10095000121B63EB050306434CEA010C49084FEAFE
:10096000300092185B4150EA0107EDD152EA0300D2
:1009700012D082EA040083EA0501084305D0101B67
:10098000AB4106D20122002306E000224FF00043D3
:1009900002E06FF0010253101AEB06004CEB085115
:1009A00010EB0A0041EB0B01BDE8F04DFFF734BF3F
:1009B00070B521F0004303430CD0C1F30A55002465
:1009C000D5EB040564EB0403D617AD1AB34102DB83
:1009D0000020014670BD201841EB025170BD00009F
:1009E00030B5041E71F1000404DB4FF000444042B6
:1009F00064EB0101141E73F1000405DB1C464FF08B
:100A00000043524263EB04038B4208BF824230BD75
:100A1000064C074D06E0E06840F0010394E807004B
:100A200098471034AC42F6D3FFF786FB107D0008E0
:100A3000307D00082DE9F04D00231A461B1A8A412B
:100A400003DB00200146BDE8F08DC1F30A52C1F37B
:100A5000130141F480154FF0000BD10702D10018AB
:100A60006D41521E0027044640F2FF11384601EB4B
:100A7000620A3E468046024600204FF48011FFF78E
:100A8000A6FBC2197141BB1846EB0100B4EB030C85
:100A900075EB000C04D3E41A65EB000517460E460F
:100AA000241908F101006D4180463428E3DDF9196D
:100AB00046EB0600091BA84103D24FF0FF32134654
:100AC00001E0002213461BEB070046EB0A51BDE88C
:100AD000F04DFFF7A1BEFEE7014800F0F9B90000B4
:100AE0005802002030B590F840500124AC40C56B4E
:100AF0006C60046863604368102B036803D09960DE
:100B00000068C26030BD9A600068C16030BD0000FE
:100B100038B5002000906B4601227521682004F052
:100B2000BBFB2CA002F086FF9DF80000682801D0D6
:100B300002F0B4FF04F0A2FD002849D1782005F0AE
:100B400073FA10B923A002F075FF782004F0C8FCF6
:100B500010B929A002F06EFF642005F025FA10B943
:100B60002FA002F067FF03F0DBFD10B936A002F002
:100B700061FF4248044604F09FFB0546E01C04F078
:100B80009BFB45EAC005A01D04F096FB45EA8010DA
:100B900080B203F085FF10B939A002F04BFF40F29C
:100BA000731003F095FC10B93FA002F043FF6420DE
:100BB00003F0DEFE10B946A002F03CFF05F0E6FAB5
:100BC000012005F017F9002802D14AA002F032FFF7
:100BD00038BD00006D70755F7365745F73656E730B
:100BE0006F7220636F6D706C657465202E2E2E2ED3
:100BF0002E2E0D0A000000006D70755F636F6E662B
:100C000069677572655F6669666F20636F6D706C8A
:100C1000657465202E2E2E2E2E2E0D0A000000004B
:100C20006D70755F7365745F73616D706C655F7215
:100C300061746520636F6D706C657465202E2E2E57
:100C40002E2E2E0D0A000000646D705F6C6F6164C3
:100C50005F6D6F74696F6E5F6472697665725F66EF
:100C600069726D7761726520636F6D706C65746514
:100C7000202E2E2E2E2E2E0D0A0000007C0000208D
:100C8000646D705F7365745F6F7269656E746174B3
:100C9000696F6E20636F6D706C657465202E2E2EEB
:100CA0002E2E2E0D0A000000646D705F656E61626D
:100CB0006C655F6665617475726520636F6D706CDD
:100CC000657465202E2E2E2E2E2E0D0A000000009B
:100CD000646D705F7365745F6669666F5F7261747F
:100CE0006520636F6D706C657465202E2E2E2E2E20
:100CF0002E0D0A006D70755F7365745F646D705FB3
:100D0000737461746520636F6D706C657465202EFB
:100D10002E2E2E2E2E0D0A0001484068704700002E
:100D2000001000E00748006840F080700549086046
:100D30000020054948600846006840F0010008604E
:100D400070470000FCED00E0001000E070474FF439
:100D5000007000F0EDBA72B6FEE710B590F8211001
:100D60000022022905D00421816380F8202001207F
:100D700010BD01680B6823F00E030B6001680B685F
:100D800023F001030B6090F84030C46B012101FA9D
:100D900003F3636080F8211080F82020104610BD16
:100DA0002DE9F05F90F821100024022903D00421DE
:100DB0008163012485E001680A6822F00E020A605E
:100DC00001680A6822F001020A603F4E3E4FB215E8
:100DD000DFF8F4C0DFF8F090DFF8ECA0DFF8E8B05F
:100DE000DFF8E4E00168783F13011502ACF1640C10
:100DF000A9F15009AAF13C0AABF1280BAEF1140E8F
:100E00004FF48018B14227D9B9420ED0614512D0B3
:100E100049451DD0514518D0594518D0714501D1CB
:100E2000424615E0294EB14201D1012210E0274E81
:100E30001436B14201D110220AE0244E2836B142C4
:100E400006D0224A3C32914201D11A4600E02A469D
:100E50001E49091F0A602BE0B94213D0614517D023
:100E6000494522D051451DD059451DD0714501D16C
:100E700042461AE0B14202D14FF0807215E0134EA3
:100E8000B14201D1012210E0104E1436B14201D11D
:100E900010220AE00D4E2836B14206D00B4A3C32F1
:100EA000914201D11A4600E02A46074980394A603A
:100EB000012180F82110002180F82010416B01B140
:100EC00088472046BDE8F09F8000024008040240A9
:100ED0002DE9F05FC16B0A6801680B68046C4FF084
:100EE000040808FA04F8844D844E854FDFF814C2D4
:100EF000DFF81492DFF814A2DFF814B2DFF814E27E
:100F000018EA020F65D05FEA437862D50A68920654
:100F100003D40A6822F004020A60DFF8F0814FF47B
:100F20008062016808F1140813011402414524D9B4
:100F3000A9420DD0B1420FD0B9421AD0614515D0A7
:100F4000494515D0514501D1120312E0594501D14F
:100F500004220EE0714501D140220AE06D4D1435A6
:100F6000A94206D06B4A2832914201D11A4600E0CC
:100F700022466749091F0A6029E0A94213D0B142FD
:100F800015D0B94220D061451BD049451BD05145F1
:100F900002D14FF4800217E0414502D14FF0806248
:100FA00012E0594501D104220EE0714501D14022E1
:100FB0000AE0584D1435A94206D0564A28329142CB
:100FC00001D11A4600E022464B4908394A60C16AFD
:100FD00071E04FF0020808FA04F818EA020F70D026
:100FE0005FEA83786DD50A68920606D40A6822F013
:100FF0000A020A60012180F82110DFF810814FF405
:101000000072016808F1140813011402414524D943
:10101000A9420DD0B1420FD0B9421AD0614515D0C6
:10102000494515D0514501D1120312E0594501D16E
:1010300002220EE0714501D120220AE0354D14351F
:10104000A94206D0334A2832914201D11A4600E023
:1010500022462F49091F0A6029E0A94213D0B14254
:1010600015D0B94220D061451BD049451BD0514510
:1010700002D14FF4001217E0414502D14FF0007247
:1010800012E0594501D102220EE0714501D1202222
:101090000AE0204D1435A94206D01E4A283291425A
:1010A00001D11A4600E02246134908394A6000215E
:1010B00080F82010816A00291CD0BDE8F05F084745
:1010C000FFE70825A540154214D01A0712D50A6873
:1010D00022F00E020A6090F84020C36B012101FA51
:1010E00002F25A60816380F82110002180F82010FC
:1010F000016BE0E7BDE8F09F080002401C000240E1
:101100003000024044000240580002406C0002409F
:10111000080402401C04024030B560B11A4B02685A
:1011200014219A4209D2194B1344B3FBF1F18900FF
:10113000016417490AE0012030BD134B5B421344A0
:10114000B3FBF1F1890001640F490839C163022141
:1011500080F82110136843F6F0718B43F0E9011415
:101160002143D0E902452C432143046921434469CA
:101170002143846921431943116000214163012205
:1011800042770177084630BD08040240F8FFFDBFF2
:101190000000024070B5044690F8200000250128A8
:1011A0000CD0012084F8200094F821600020012E4A
:1011B00006D084F820000225284670BD022070BDAC
:1011C000022684F82160A0632068066826F00106E4
:1011D00006602046FFF786FCE06A00282068016868
:1011E00002D041F00E0106E021F004010160206808
:1011F000016841F00A0101602068016841F00101C5
:101200000160D9E770B5044600F0A4F90546601CFA
:1012100002D004480078044400F09CF9401BA0422E
:10122000FAD370BD200000202DE9FC41B0F5007F0D
:1012300069D1364C4FF4FA780025E069401CE06132
:10124000404516D33248C821E5610091022341216F
:10125000066901AAD020B047BDF8040040BA00B228
:10126000FFF7D1F92B49FFF76BF82B49FEF7DEFFAB
:10127000E06001F0BFFFA078401CC0B2A07005285C
:1012800010D3264F4FF40046A57000223146384651
:1012900000F05BF90F2003F0BFF801223146384619
:1012A00000F053F92078401CC0B22070642800D3AD
:1012B0006570E078401CC0B2E070052823D3E5706B
:1012C000174DCC2005F8010BDD2028706078687080
:1012D000144830F8051F69808188A9804088E8801B
:1012E0001149E068FEF7FAFFFFF79BF90C4C2881E3
:1012F0000B21204603F062F8A87243460C222146D7
:101300000A4801F01DFABDE8FC8100000000002041
:10131000340000200000AA43B81E12420010014011
:10132000C4000020590700200000C84280010020AE
:10133000044910B50A68024202D00860FFF774FF42
:1013400010BD0000140401402DE9F84FDFF8C891EA
:101350000024A9F1040B23460F2709F1040AABF17D
:10136000040ED1E00125A54006EA0502AA4276D185
:10137000DFF8A8C14E68A6EB0C0866452BD00DDC43
:10138000032E34D005DC36B3012E19D0022E2FD116
:101390001BE0112E16D0122E2AD119E0B8F5881FA5
:1013A00019D006DCB8F5803F15D0B8F5801F1FD1E5
:1013B00011E0B8F5001F0ED0B8F5041F18D10AE0EF
:1013C000CB6815E0CB681B1D12E0CB6808330FE03B
:1013D000CB680C330CE08B682BB1012B4FF008036A
:1013E00003D0456104E0042302E0056100E000232E
:1013F000FF2A01D8064601E000F104064FEA840501
:1014000001D9A5F12005D6F8008007FA05FC28EAE5
:101410000C0803FA05F548EA0508C6F800804D688F
:10142000ED0070D53E4DAE6946F00106AE61AD6986
:1014300024F0030605F0010500953A4D06EB050C76
:10144000DCF80850A607360F07FA06F825EA080563
:10145000DFF8D480404503D14FF0000825E052E08A
:10146000DFF8C880404502D14FF001081DE0DFF8E9
:10147000C080404502D14FF0020816E0DFF8B4808A
:10148000404502D14FF003080FE0DFF8AC80404543
:1014900002D14FF0040808E0DFF8A080404502D1F7
:1014A0004FF0050801E04FF0060808FA06F848EA90
:1014B0000508CCF808804D68D9F80060ED024D466B
:1014C00001D5164300E096432E604D68DAF80060BF
:1014D000AD02554601D5164300E096432E604D6897
:1014E000DBF80060AD035D4601D5164300E096438E
:1014F0002E604D68DEF80060ED03754601D5164399
:1015000000E096432E60641C0A681646E2407FF4B1
:1015100029AFBDE8F88F0000080401400000111059
:10152000001002400000014000080140000C014092
:10153000001001400014014000180140001C01404F
:101540008068084000D0012070470AB101617047EF
:101550000904FBE701488068704700002000002074
:1015600002488168027811448160704720000020A1
:10157000074810B5016841F010010160032000F038
:1015800075F8002000F006F800F024F8002010BDE7
:101590000020024070B50D4D04464FF47A71287852
:1015A000B1FBF0F00A490968B1FBF0F000F0DCFA99
:1015B00048B9102C07D200222146501E00F036F800
:1015C00000206C6070BD012070BD00002000002074
:1015D0002C0000200C4808B5816941F001018161AF
:1015E000816901F001010091C16941F08051C1613F
:1015F000C06900F0805000900448416821F0E0612B
:1016000041F00071416008BD00100240000001403F
:10161000002809DB00F01F020121914040098000F1
:1016200000F1E020C0F8001170470000F0B40E4B4C
:101630001B680C46C3F30223C3F10705042D00D930
:101640000425191D072901D2002300E0DB1E012615
:1016500006FA05F1491E214099409E40761E16402B
:101660003143F0BC02F00ABA0CED00E0064900F08C
:10167000070208684FF6FF03184040EA0220034AB9
:1016800010430860704700000CED00E00000FA0510
:101690002DE9F0470F46050061D0434E306800F059
:1016A0000700B84209D2306820F0070038433060A4
:1016B000306800F00700B84251D128683B4C8107E0
:1016C00012D5400703D5606840F4E0606060287878
:1016D000000703D5606840F4605060606068A968E6
:1016E00020F0F000084360602878C00728D06868C0
:1016F000012810D02168022810D0890700292EDA8D
:10170000616821F0030101436160FFF723FF804618
:1017100041F288390DE021688903EFE78901EDE79F
:10172000FFF718FFA0EB0801494502D90320BDE8E7
:10173000F0876068696800F00C00B0EB810FEFD1B2
:10174000306800F00700B8420BD9306820F007007D
:1017500038433060306800F00700B84201D0012003
:10176000E5E72878400705D56068E96820F4E0607F
:10177000084360602878000706D56068296920F46E
:10178000605040EAC100606000F038F86168084AC3
:10179000C1F30311515CC84006490860064800685F
:1017A000FFF7F8FE0020C2E70020024000100240D0
:1017B0000C6500082C000020240000200448054986
:1017C00000684968044AC1F30221515CC84070476F
:1017D0002C000020001002401C6500080448054948
:1017E00000684968044AC1F3C221515CC84070478F
:1017F0002C000020001002401C6500080E4A5168B1
:101800000E4801F00C03042B11D0082B0FD10C480B
:10181000C1F38343C903C05C0AD55168084AC1F3C8
:101820004041921E515C054A5043B0FBF1F07047B5
:1018300004494843704700000010024000127A003B
:10184000FC64000800093D002DE9F84F040070D049
:101850002078C04DC00749D06868C0F381000128D6
:1018600007D06868C0F38100022809D16868C00306
:1018700006D52868800339D560680028E7D035E0B0
:101880006068B0F5803F0BD010B1B0F5A02F11D03B
:10189000286820F480302860286820F4802002E046
:1018A000286840F480302860606890B1FFF752FEED
:1018B00006460AE0286840F480202860F0E700BF70
:1018C000FFF748FE801B642873D828688003F7D58B
:1018D0000CE0FFF73FFE064605E000BFFFF73AFECB
:1018E000801B6428F0D828688003F7D420789A4EAB
:1018F00080074FF001094FF0000839D5686810F0F3
:101900000C0F07D06868C0F38100022809D168680D
:10191000C00306D42868800714D52069012808D19F
:1019200010E02069B0B1C6F80090FFF713FE07463B
:1019300005E00AE1FFF70EFEC01B0228C4D82868A4
:101940008007F7D52868616920F0F80040EAC100F7
:1019500028600DE0C6F80080FFF7FCFD074604E0B4
:10196000FFF7F8FDC01B022823D828688007F7D4AA
:10197000207800072CD57948A169D9B1C0F800902A
:10198000FFF7E8FD074604E0FFF7E4FDC01B02286F
:101990000FD8686A8007F7D571484FF4FA5100688C
:1019A000B0FBF1F0009000BF0098411E0091FAD208
:1019B0000EE080E0C0F80080FFF7CCFD074604E0B1
:1019C000FFF7C8FDC01B022875D8686A8007F7D4E6
:1019D0002078400760D5E8690027C00008D4E8698E
:1019E00040F08050E861E869012700F080500090E5
:1019F0005C480168C90513D40168834641F48071CD
:101A00000160FFF7A7FD824606E000BFFFF7A2FDD9
:101A1000A0EB0A0064284ED8DBF80000C005F5D51D
:101A2000E06801280AD008B1052813D0286A20F000
:101A300001002862286A20F0040002E0286A40F0D1
:101A400001002862E06841F2883B98B1FFF782FD0F
:101A500082460BE0286A40F004002862EEE700BFEF
:101A6000FFF778FDA0EB0A0159455AD8286A80078C
:101A7000F6D50CE0FFF76EFD824605E0FFF76AFD44
:101A8000A0EB0A0159454CD8286A8007F6D41FB14B
:101A9000E86920F08050E861E06988B36968C1F3C3
:101AA0008101022944D00228C6F8608004D0FFF7E3
:101AB00051FD044638E034E0FFF74CFD074604E0F2
:101AC000FFF748FDC01B02282BD828688001F7D4F7
:101AD000206AB0F5803F05D16868A16820F4003025
:101AE00008436860D4E908010843696821F4741167
:101AF00008436860C6F86090FFF72CFD044606E0D6
:101B000025E000BFFFF726FD001B022809D8286842
:101B10008001F7D51BE000BFFFF71CFD001B02286A
:101B200002D90320BDE8F88F28688001F4D40EE0C4
:101B30000128F7D06868226A00F48031914204D10C
:101B4000616A00F47010884201D00120EAE70020A9
:101B5000E8E70000001002400000424280044242D8
:101B60002C0000200070004010B5401EB0F1807FB6
:101B700001D3012010BD4FF0E02460610F216017F8
:101B800001F07CFF0020A06107202061002010BD33
:101B90007047704770B590F83C20012A2CD0012482
:101BA00080F83C40022280F83D2003685A689D6816
:101BB00022F070060A6832435A60104B02689A425B
:101BC0000ED00F4B9A420BD0B2F1804F08D00D4B84
:101BD0009A4205D00C4B9A4202D00C4B9A4204D147
:101BE000496825F080031943916080F83D40002149
:101BF00080F83C10084670BD022070BD002C0140EA
:101C0000003401400004004000080040000C004087
:101C100010B5040003D094F83D0010B107E0012096
:101C200010BD002084F83C00204600F01FF8022080
:101C300084F83D00211D206801F018FC012084F883
:101C4000460084F83E0084F83F0084F8400084F8A1
:101C5000410084F8420084F8430084F8440084F88A
:101C6000450084F83D00002010BD000000B585B09F
:101C70000021009101910291039101681B48B1F18B
:101C8000804F15D01A4A914210D1C16941F020010C
:101C9000C161C069002200F02000049005213720B6
:101CA000FFF7C4FC5FF03700FFF7B2FC05B000BDE2
:101CB000C16941F00101C161C16901F001010491F3
:101CC000816941F0040181618069694600F0040086
:101CD0000490022000900748FFF736FB0022042101
:101CE0001C20FFF7A3FC1C20DEE7000000100240D0
:101CF000001400400008014070B5044690F83C0014
:101D00000025012817D0012684F83C60022084F8C1
:101D10003D002068826822F0770222F47F428260D0
:101D20000868502838D00DDC20284FD005DC90B34F
:101D3000102811D14AE0022070BD302846D040283A
:101D40000AD13BE060282FD070280DD0B0F5805F1D
:101D500003D0B0F5005F12D0012584F83D6000206B
:101D600084F83C00284670BDCB68D1E90121206889
:101D700001F0D7FB2068816841F0770109E0CB686A
:101D8000D1E90121206801F0CCFB2068816841F491
:101D900080418160E1E719E0CA684968206801F084
:101DA000D2FB5021206806E0CA684968206801F02B
:101DB00011FC6021206801F0BEFBCEE7CA684968CB
:101DC000206801F0C0FB40212068F4E7226801464A
:101DD0001046F0E770B5214DA8422CD1007F0228B3
:101DE00029D11F4C207938B3012824D10421284659
:101DF00000F013FAA06161698142A0EB010002D9F1
:101E00004FF6FF710844FEF707FC1649A060FEF785
:101E100097FA4FF0FF31FEF7D1FA1349FEF75EFA59
:101E2000A0602868016A21F0A00101622868016AA7
:101E300001620020207170BD0421084800F0EDF916
:101E400060612868016A21F0A00101622868016AC6
:101E500041F0200101620120ECE70000F0000020C9
:101E600000000020002474490000AA432DE9F0413D
:101E7000054690F83C0000260C46012810D00120B1
:101E800085F83C0072B1042A1CD0082A2CD00C2AF8
:101E900050D00126002085F83C003046BDE8F08196
:101EA0000220FBE7D4E90012E368286801F05CFB3C
:101EB0002868816921F00C01816128688169A26824
:101EC00011430FE0D4E90012E368286801F094FBA5
:101ED0002868816921F44061816128688169A2686C
:101EE00041EA02218161D5E72868D4E9002C277BEB
:101EF000036A016A21F480710162C16923F40073ED
:101F000021F0030141EA0C0121F0F00C39074FF4F4
:101F100000774CEA116107EA02221A43C1610262AA
:101F20002868C16921F00C01C1612868C169A268F3
:101F300011432BE02868D4E90021E768036AD0F850
:101F400020C02CF4805CC0F820C0D0F81CC023F462
:101F500000532CF4407C4CEA012121F4704C4FF6E4
:101F6000FF7101EA07314FF4005741EA0C0107EA1B
:101F700002321A43C16102622868C16921F44061DA
:101F8000C1612868C169A26841EA0221C16181E793
:101F900010B5040003D094F83D0010B107E0012013
:101FA00010BD002084F83C00204600F01EF80220FE
:101FB00084F83D00211D206801F058FA012084F8C2
:101FC000460084F83E0084F83F0084F8400084F81E
:101FD000410084F8420084F8430084F8440084F807
:101FE000450084F83D00002010BD704730B5044620
:101FF000002551B104290DD0082910D094F84120B2
:1020000094F84500012A11D10EE094F83E2094F88E
:102010004200F7E794F83F2094F84300F2E794F881
:10202000402094F84400EDE7012801D0012030BDA4
:10203000022059B1042912D0082919D084F841008E
:1020400084F845000C293ED001253AE084F83E0092
:1020500084F842002068C26842F0020210E084F86E
:102060003F0084F843002068C26842F0040207E0A1
:1020700084F8400084F844002068C26842F00802F6
:10208000C2600122206801F03FFA114920688842AD
:102090000ED0104988420BD0B0F1804F08D00E49C5
:1020A000884205D00D49884202D00D49884204D1AA
:1020B000816801F00701062903D0016841F00101A0
:1020C0000160284630BD2068C26842F01002D7E7A0
:1020D000002C014000340140000400400008004092
:1020E000000C00402DE9F04104460068C66805690F
:1020F0004FF00007A90713D5B10711D5F91E0161EB
:1021000001202077206880698007204602D0FFF7F1
:1021100061FE04E000F07EF8204600F07CF82777AE
:10212000680716D5700714D521686FF004000861A0
:10213000022020772068806910F4407F204602D07A
:10214000FFF748FE04E000F065F8204600F063F871
:102150002777280715D5300713D521686FF00800B9
:102160000861042020772068C0698007204602D0DB
:10217000FFF730FE04E000F04DF8204600F04BF889
:102180002777E80616D5F00614D521686FF0100001
:102190000861082020772068C06910F4407F20463D
:1021A00002D0FFF717FE04E000F034F8204600F0FC
:1021B00032F82777E80708D0F00706D021686FF0DB
:1021C00001000861204600F027F8280608D53006EF
:1021D00006D521686FF0800008612046FFF7D8FC23
:1021E000680608D5700606D521686FF040000861C2
:1021F000204600F027F8A8060AD5B00608D52168C1
:102200006FF0200008612046BDE8F041FFF7C1BC37
:10221000BDE8F0817047704770470246002041B129
:10222000042909D008290AD00C2901D11068006CB2
:1022300070471068406B70471068806B704710687B
:10224000C06B7047704738B5044690F842002028AC
:1022500001D0022038BD51B14AB1012020630020D5
:102260006063204601F05CFB216B012901D0012055
:1022700038BD21680A684968009121680C3151E82D
:10228000002F42F0100241E80023002BF5D138BDA9
:1022900070B50D460E49884219D190F842002028A9
:1022A00015D10C4800210C4E017001214170002411
:1022B00004E0305D03F024F8641CE4B2AC42F8D3CF
:1022C000BDE870401E2204490148FFF7BCBF70BD45
:1022D0001002002000000020D00000207047000005
:1022E000F8B5016804460868CA684B6910F00F0F1A
:1022F0004FF0000559D003F0010602F49077374300
:1023000065D0C10705D0D10503D5616C41F001014D
:102310006164410705D5D90703D0616C41F0020122
:102320006164810705D5D90703D0616C41F00401D0
:102330006164010707D502F02001314303D0616CCD
:1023400041F008016164616C00293AD0800604D52F
:10235000900602D5204601F025FA20684069616C9C
:10236000C0F38010090700D460B3204601F0E5F9FE
:1023700020684069400621D52068143050E8001FCD
:1023800021F0400140E80012002AF5D1E06BA8B12D
:102390006D494163E06BFEF703FD002811D0E06B4F
:1023A000416B01B0BDE8F040084783060FD59306A6
:1023B0000DD52046BDE8F84001F0F4B92046FFF7FE
:1023C0008DFFF8BD2046FFF789FF6564F8BD266BD9
:1023D0002023012E7CD1C6067AD5D60678D508688A
:1023E0004868009048694FF00206400640D5E16B0E
:1023F000086840680004000CE8D0A28D8242E5D94C
:10240000E085886920282DD020680C3050E8001F16
:1024100021F4807140E80012002AF5D120681430C0
:1024200050E8001F21F0010140E80012002AF5D118
:102430002068143050E8001F21F0400140E80012ED
:10244000002AF5D184F84230256320680C3050E82A
:10245000001F21F0100140E80012002AF5D1E06BC6
:10246000FEF77BFC6663A08DE18D401A81B22AE005
:10247000A08DE18D401A81B2E08D0028A6D0002900
:10248000A4D022680C3252E8000F20F4907042E889
:102490000007002FF5D12068143050E8002F22F0FB
:1024A000010240E80027002FF5D184F8423025636F
:1024B00020680C3050E8002F22F0100240E8002382
:1024C000002BF5D166632046FFF7E2FEF8BDFFE77B
:1024D00005062BD5150629D594F841002128F5D1FC
:1024E000A068B0F5805F01D12069B0B1206A411CBD
:1024F0002162216800784860E08C401E0004000CD6
:10250000E084E3D12068C16821F08001C1602068C7
:10251000C16841F04001C160D8E7206A0088C0F37B
:1025200008004860206A801C2062E5E74006CDD59F
:102530005006CBD5CA68204622F04002CA6084F813
:10254000413000F04DF9C1E73D36000870B5040098
:1025500004D094F84100002510B106E0012070BDC0
:1025600084F84050204600F023F8242084F84100ED
:102570002068C16821F40051C160204601F074F95F
:102580002068016921F4904101612068416921F0CE
:102590002A0141612068C16841F40051C16065644D
:1025A000202084F8410084F842006563002070BD5B
:1025B000F0B585B00024009401940294039406467B
:1025C000544D0768544902200322544BAF422ED188
:1025D000CD6945F48015CD61CD6905F4801504956C
:1025E0008D6945F010058D618D6905F01005049524
:1025F0008D6945F020058D618969039201F0200104
:102600000491C102CDE9001069461846FEF79CFE10
:102610000420CDE90004694641480294FEF794FE87
:10262000002205213520FFF701F835206EE0DFF8A4
:10263000F4C04FF48065674521D18B6943F4804332
:102640008B618B6903F4804304938B6943F004032B
:102650008B618969344E01F0040104916910CDE960
:102660000010039269463046FEF76EFECDE9005435
:10267000694630460294FEF767FE05B0F0BDDFF80C
:10268000ACC06745F9D1CF6947F48027CF61CF69E6
:1026900007F4802704978F6947F010078F618969D5
:1026A00001F01001CDE90321CDE9005069461D4636
:1026B0001846FEF749FE4FF40060CDE90004694674
:1026C00028460294FEF740FE1948416821F0300187
:1026D00041F0E06141F010014160174D1548C5E936
:1026E00000048020C5E902402C616C61AC61284681
:1026F000EC61FEF711FD08B1FEF72DFBF56300223A
:10270000052127206E62FEF791FF2720FEF780FF4C
:10271000B3E70000005000400010024000100140EC
:10272000001401400038014000080140004800400A
:1027300000000140300002405802002070477047FE
:102740002DE9F843044690F84100984616460D4698
:10275000202802D00220BDE8F88385B17EB1002098
:102760006064212084F84100FEF7F4FEA6848146CF
:10277000E684A0682027B0F5805F02D003E0012046
:10278000E9E7206910B12E4600250EE000260CE096
:102790008021204601F00CF9A8B9C6B116F8010B4A
:1027A00021684860E08C401EE084E08C4B464FF08E
:1027B0000002CDF800800028EAD14FF04001204609
:1027C00001F0F6F840B184F841700320C3E735F812
:1027D000020BC0F30800E3E784F841700020BAE779
:1027E0007047FEE72DE9F0411F4615460E460446A8
:1027F00003F0A8FDE0B240F0010003F06FFD3846A1
:1028000003F0F4FD10B100246F1E0EE003F0C8FDCC
:102810000320BDE8F081BC4201D0012000E000208F
:1028200003F0F2FC3055641CA4B2AC42F3D303F0C5
:10283000B7FD0020EDE72DE9F0411F4615460E4695
:10284000044603F07FFDE0B203F048FD384603F094
:10285000CDFD88B1002408E0305D03F03FFD38462F
:1028600003F0C4FD40B1641CA4B2AC42F4D303F045
:1028700097FD0020BDE8F08103F092FD0320F9E709
:102880002DE9F0411D4616460F460446DDF8188036
:1028900003F058FDE0B203F021FD404603F0A6FD31
:1028A000A0B1F8B203F01AFD404603F09FFD68B1F5
:1028B00003F048FDE0B240F0010003F00FFD404698
:1028C00003F094FD10B100246F1E0CE00320BDE85E
:1028D000F081BC4201D0012000E0002003F094FC14
:1028E0003055641CA4B2AC42F3D303F059FD002070
:1028F000EDE72DE9F0411D4616460C460746DDF88A
:10290000188003F01FFDF8B203F0E8FC404603F026
:102910006DFDC0B1E0B203F0E1FC404603F066FD9E
:1029200088B1002408E0305D03F0D8FC404603F095
:102930005DFD40B1641CA4B2AC42F4D303F030FDA1
:102940000020BDE8F0810320FBE7000038B51D46FC
:10295000C8230093034B40005B691C6913462A4659
:10296000A04738BD4C0000202DE9FC47114DC8247C
:102970004600009468691F469046D0F810C089460A
:10298000012301AA3046E04701209DF8041000FA17
:1029900008F00FB1084301E021EA00008DF80400BF
:1029A00000946869012301AAC46849463046A047DB
:1029B000BDE8FC874C0000202DE9FC471A4FC826D3
:1029C000DDF828904FEA4008009678691D461446C5
:1029D000D0F810C08A46012301AA4046E04710B152
:1029E0000120BDE8FC87621CFF2101FA02F0C4F15E
:1029F00008022A44521ED1400843C5F1080209FAD0
:102A000002F1CAB2C4F10701CA409DF80410009651
:102A1000014011438DF804107869012301AAC468AC
:102A200051464046A047DCE74C00002010B5044B5F
:102A3000012275216820FFF789FF0148007810BD49
:102A4000A806002010B5FFF7F1FF682801D001F0BB
:102A500025F8022000F011F8032000F020F80020F3
:102A600000F014F8002000F02FF8002000F026F805
:102A7000BDE81040002000F01BB808B5032300900B
:102A800002226B216820FFF797FF08BD08B50223DB
:102A9000009004221C216820FFF78EFF08BD08B5B6
:102AA0000223009004221B216820FFF785FF08BD48
:102AB0000346012237216820FFF756BF034605224F
:102AC0006A216820FFF750BF034606226B21682069
:102AD000FFF74ABF094808B5416941F0010141616A
:102AE0004069002200F00100009011460D20FEF721
:102AF0009DFDBDE808400D20FEF78ABD0010024094
:102B00002DE9F04186B000242E48009401940294EF
:102B10000394816941F010018161816901F0100124
:102B20000491816941F020018161816901F02001F6
:102B30000491816941F004018161816901F004011E
:102B40000491816941F00801816180691E4F00F0A4
:102B500008004FF440450490002229463846FEF70D
:102B6000F4FCDFF868804CF238060122314640461A
:102B7000FEF7EBFC0220CDE90240009501256946F5
:102B800001953846FEF7E0FB0320CDE90240CDE990
:102B9000006569464046FEF7D7FB680200900C4886
:102BA000CDE9010569464046FEF7CEFB002206212D
:102BB0001720FEF73BFD1720FEF72AFD06B0BDE803
:102BC000F08100000010024000100140000C0140A4
:102BD0000000211010B58AB0002422480494059406
:102BE00006940794089409940094019402944FF079
:102BF0008041039401604721C0E901144FF6FF7141
:102C0000C0E903148461FFF703F808B1FEF7A3F8E5
:102C10004FF48050049004A91248FFF76DF808B1F2
:102C2000FEF799F80F48FFF7B3F908B1FEF793F8EC
:102C3000089408A90B480994FEF7ACFF08B1FEF709
:102C40008AF80120CDE90040029404226946054833
:102C50000394FFF70BF9002801D0FEF77CF80AB0C7
:102C600010BD0000F00000201CB500240E480094A8
:102C70000C49019401604721C0E9011442F20F712F
:102C80008461C160FEF7C4FF08B1FEF764F80094E8
:102C9000694605480194FEF77DFF002801D0FEF744
:102CA0005AF81CBD00140040380100200C4810B533
:102CB0000A4901604FF4E1314160002181600C223A
:102CC000C160C0E904128161C161FFF73FFC0028C7
:102CD00003D0BDE81040FEF73EB810BD00500040E4
:102CE000800100200C4810B50A4901604FF4E13121
:102CF0004160002181600C22C160C0E90412816141
:102D0000C161FFF723FC002803D0BDE81040FEF7A7
:102D100022B810BD00380140C80100200C4810B591
:102D20000A4901604FF4E1314160002181600C22C9
:102D3000C160C0E904128161C161FFF707FC00288E
:102D400003D0BDE81040FEF706B810BD00480040B3
:102D500010020020FEE7FEE730B40021084B0A46CF
:102D60005FF0000003EBC004401CC0B26254802836
:102D7000F8D3491CC9B20829F2D330BC00F09AB884
:102D8000A802002010B57F2816D83F2914D80723A1
:102D9000A3EBD10301F00701C1F107040121A14018
:102DA000064CDBB204EBC000002AC25CC9B201D001
:102DB0000A4300E08A43C25410BD0000A80200206C
:102DC00010B53B4C002210212046FEF7BEFB6420CC
:102DD000FEF718FA012210212046FEF7B6FB00216B
:102DE000AE2000F0C7F90021D52000F0C3F9002182
:102DF000502000F0BFF90021A82000F0BBF900210D
:102E00003F2000F0B7F90021D32000F0B3F90021F2
:102E1000084600F0AFF90021402000F0ABF9002196
:102E20008D2000F0A7F90021142000F0A3F9002163
:102E3000202000F09FF90021022000F09BF90021E2
:102E4000A12000F097F90021C02000F093F90021A3
:102E5000DA2000F08FF90021122000F08BF9002118
:102E6000812000F087F90021EF2000F083F9002194
:102E7000D92000F07FF90021F12000F07BF900213A
:102E8000DB2000F077F90021302000F073F90021F9
:102E9000A42000F06FF90021A62000F06BF90021BA
:102EA000AF2000F067F9BDE81040FFF755BF000004
:102EB000000C014070B5114E002400BF04F1B000B9
:102EC000C0B2002100F056F90021084600F052F986
:102ED0000021102000F04EF95FF0000506EBC50060
:102EE0000121005D00F046F96D1CEDB2802DF5D397
:102EF000641CE4B2082CE1D370BD0000A8020020DD
:102F00002DE9FF4F203A1F460C46894602F0FF0A82
:102F10000025DDF834B032E00C2F09D01A4901EB5E
:102F20000A104FF00008465D300607D55A4609E002
:102F300016490AEB4A0001EB8000F2E7BBF1000FF3
:102F400012D0002221460098FFF71CFF7006641C77
:102F5000060EE4B2A4EB0900B84207D100984C4633
:102F6000401CC0B2009008E00122EBE708F101002C
:102F700000F0FF08B8F1080FD6D36D1CEDB2BD42CA
:102F8000CAD3BDE8FF8F00009869000824650008D7
:102F90002DE9F84F464C0125DDF8289098468B46E0
:102FA0000746164612F1FF4F04D3A81E82F00046D2
:102FB000A06000E0A5603046FDF733FB2060FDF720
:102FC00022FB3146FDF787F93A49FDF787F9FDF70E
:102FD00028FB394E60604FF00C033460A068009508
:102FE000002801DD2B2200E02D2259463846FFF74C
:102FF00087FF0C240094306843465946026807F165
:103000000800C0B200F05AF8009507EBC805A81DEB
:10301000C0B20C232E225946FFF772FF30684FF0E2
:103020000A0A426805F10C00642A33DA07EBC80784
:103030001237B9F1030F10D0642A06D2C0B20123AF
:1030400000225946009400F039F830684168F8B21F
:1030500091FBFAF20094012317E0C0B20123002291
:103060005946009400F02AF830684268F8B20A2AFB
:10307000009416DA01230022594600F01FF800944C
:10308000306818354268E8B2E5E7594600F016F8AE
:10309000BDE8F88FB9F1030F05D092FBFAF2C0B288
:1030A00000940223F1E7C0B203230094EDE700008F
:1030B0009C02002000007A44300000202DE9FF4FE0
:1030C00081B00026DDF838A01D469346814634467F
:1030D0004FF001084FEA5A0727E0281B401EC1B2F3
:1030E0000A2003F04BF8BBFBF0F00A21B0FBF1F231
:1030F00001FB120026B9691E8C4201DA48B1012693
:103100003030C2B207FB0490C0B25346CDF8008005
:1031100006E007FB0490C0B253462022CDF80080A1
:103120000299FFF7EDFE641CE4B2AC42D5D305B0C2
:10313000BDE8F08FF8B516460D460446012714E0A9
:103140007A2C02D900241035EDB23A2D03D900248F
:103150002546FFF701FE009732780C2329462046CA
:10316000FFF7CEFE0834E4B2761C30780028E7D1B1
:10317000F8BD00002DE9F041174E054609B10122C6
:1031800000E0002208213046FEF7DFF9B046134F79
:1031900000244FF48046002231463846FEF7D5F928
:1031A000280601D5012200E0002220214046FEF73A
:1031B000CCF9012231463846FEF7C7F96806641C8F
:1031C000050EE4B2082CE6D34046BDE8F0410122EA
:1031D0000821FEF7BAB90000000C014000100140C0
:1031E000704700004FF400410148FEF7A9B9000004
:1031F000000C01402DE9F04F89B007A96848CDE9DE
:10320000000100F12A0106AB02AA243001F092FA73
:10321000634C2088C0057DD50298FDF7F4F96FF066
:103220001D063146FDF7CAF8804660600398FDF739
:10323000EAF93146FDF7C2F80746A0600498FDF7A9
:10324000E2F93146FDF7BAF80546E0600598FDF76A
:10325000DAF93146FDF7B2F8064620610121404611
:10326000FDF7ACF82946FDF739F805464FF0404820
:1032700041463846FDF732F83146FDF72FF829462A
:10328000FCF7D4FFFDF7FAF900F082FDDFF814A196
:103290004FF066394A465346FDF743F9FDF701FA08
:1032A000A061E06801210546FDF788F883462946BC
:1032B000FDF714F80546A06841460646FDF70EF8EE
:1032C0003146FDF70BF82946FDF702F84FF07E5125
:1032D000FCF7ACFFFDF7D2F907460D460121606807
:1032E000FDF76CF83146FCF7F9FF064658462169B0
:1032F000FCF7F4FF3146FCF799FFFDF7BFF93A46BA
:103300002B4600F08DFF4A465346FDF70AF9FDF7BC
:10331000C8F900E040E0E061216901910846FCF74E
:10332000DDFFE168074608460091FCF7D7FFA1687A
:1033300006468B465846FCF7D1FF6168054688462D
:103340004046FCF7CBFF2946FCF770FF3146FCF7FF
:10335000BFFF3946FCF7BCFFFDF790F906460D4666
:1033600040460199FCF7BAFF074658460099FCF71A
:10337000B5FF3946FCF75AFF0121FDF71FF8FDF7AD
:103380007DF932462B4600F04BFF4A465346FDF787
:10339000C8F8FDF786F9206209B0BDE8F08F00009B
:1033A0004C00002066A64C401FB500200190029002
:1033B00003904FF40040009069460248FDF7C4FFB7
:1033C0001FBD0000000C01401FB5002002904FF40B
:1033D00000400090012001900320039069460248BC
:1033E000FDF7B2FF1FBD0000000C01407047FEF763
:1033F000B7B830B58FB028216846FCF7FFFE14211E
:103400000AA8FCF7FBFE01210804CDE90010002406
:10341000029402250491CDE907504FF4E010099081
:103420006846FEF711FA08B172B6FEE70F20CDE943
:103430000A054FF48060CDE90C4002210AA80E94E1
:10344000FEF726F9002801D072B6FEE70FB030BDB6
:10345000704700000148FEF745BE0000F000002064
:103460000148FEF73FBE000038010020F0B50268B9
:10347000204C214D214E224F224B4FF0804CA04238
:1034800009D0984207D0604505D0A84203D0B04289
:1034900001D0B84204D122F0700E4A6842EA0E020E
:1034A000A04209D0984207D0604505D0A84203D079
:1034B000B04201D0B84203D122F44075CA682A4311
:1034C0004D6922F080022A4302608A68C2620A685B
:1034D0008262A04201D0984201D1096901630121B1
:1034E00041610169C90703D0016921F0010101614E
:1034F000F0BD0000002C0140000400400008004026
:10350000000C00400034014010B501F01F03012100
:10351000046A99408C430462016A9A401143016233
:1035200010BD10B5846842EA032224F47F440A43A4
:103530002243826010BD826822F070020A4342F08A
:1035400007018160704710B5036A046A24F0010422
:103550000462846924F0F00444EA021423F00A02AD
:103560000A438461026210BD70B5056A046A24F0E2
:10357000010404628469124EB0420ED0114EB04272
:103580000BD0B0F1804F08D00F4EB04205D00F4E97
:10359000B04202D00E4EB04203D124F003041443D3
:1035A00001E044F001041A0724F0F00444EA126236
:1035B00025F00A0301F00A0119438261016270BD1E
:1035C000002C01400034014000040040000800408D
:1035D000000C004010B5036A046A24F01004046271
:1035E000846923F0A00324F4704444EA023243EADD
:1035F00001118261016210BD30B5046A056A25F0CF
:1036000010050562856925F4407545EA022222F419
:1036100070454FF6FF7202EA033224F0A0032A43FA
:10362000A02404EA011119438261016230BD000047
:103630000148FEF755BE00008001002010B5406A29
:103640000021C185C184FEF749FE10BD70B5446AF2
:103650002068406994F84110C0F3C010002521296A
:1036600004D118B1E584204600F08EF82068406946
:1036700094F84210C0F38010222904D118B1E585D6
:10368000204600F05AF8606C40F01000606420465C
:10369000FEF724FE70BD10B50146406A096809684E
:1036A0004FF0000289062ED4C28501680C3151E822
:1036B000003F23F4807341E80034002CF5D1016809
:1036C000143151E8003F23F0010341E80034002C9D
:1036D000F5D10168143151E8003F23F0400341E87F
:1036E0000034002CF5D1202180F84210016B012913
:1036F00009D101680C3151E8003F23F0100341E883
:103700000034002CF5D14263016B012902D0FFF790
:1037100015F810BD818DFEF7BBFD10BD10B5406AD8
:1037200001214163016B012902D0FFF708F810BDA8
:10373000818D4908FEF7ACFD10BD01680C3151E8E0
:10374000002F22F4907241E80023002BF5D101688C
:10375000143151E8002F22F0010241E80023002B30
:10376000F5D1016B012909D101680C3151E8002F15
:1037700022F0100241E80023002BF5D1202180F82F
:10378000421000210163704701680C3151E8002F9D
:1037900022F0C00241E80023002BF5D1202180F85F
:1037A0004110704708B590F84210222901D002203C
:1037B00008BD82684FF480539A4201D1016921B15A
:1037C000816A9A421BD04AB10AE00268816A526853
:1037D000C2F308020A80816A891C08E0026972B19A
:1037E0000268526802F07F020A70816A491C816295
:1037F000C18D491E0904090CC18503D01BE0026874
:103800005268F1E70168CA6822F02002CA600168C4
:10381000CA6822F48072CA6001684A6922F0010213
:103820004A61202180F8421000214163026B012A85
:1038300003D0FEF783FF002008BD016301680C314F
:1038400051E8002F22F0100241E80023002BF5D1AF
:1038500001680A68D20602D50A6849680091818D1C
:10386000FEF716FDE7E7000070B504460068016941
:10387000E26821F44051114301612169A0680843C5
:10388000616908432168CA6841F20C639A430243A4
:10389000CA6020684169A26921F440711143416105
:1038A0001E492068884202D1FDF798FF01E0FDF72C
:1038B00085FF00EBC00101EB00126068642180000D
:1038C000B2FBF0F3B3FBF1F36FF018067343B2FBF6
:1038D000F0F5B2FBF0F605EB8305322303EB05159B
:1038E000B5FBF1F5B6FBF1F605F0F00505EB0615B5
:1038F000B2FBF0F6B2FBF0F0B0FBF1F06FF01802A3
:10390000504306EB800003EB0010B0FBF1F02168A0
:1039100000F00F002844886070BD000000380140AE
:1039200038B58162044682850020134660642222F5
:1039300084F84220E56B1B4AAA62E56B1A4AEA62E8
:10394000E56B1A4A2A63E26B50630A462168E06B12
:10395000091DFDF71FFC2068016840680090206980
:1039600048B120680C3050E8001F41F4807140E8F5
:103970000012002AF5D12068143050E8001F41F0F1
:10398000010140E80012002AF5D12068143050E807
:10399000001F41F0400140E80012002AF5D100204C
:1039A00038BD0000973600081D3700084D36000866
:1039B0002DE9F843984617460D460446089E24E034
:1039C000701C22D0FDF7C6FDA0EB0800B0421AD84B
:1039D000CEB12068C168490717D5802D15D0402D7C
:1039E00013D00168C94309070FD401680025406856
:1039F00000902046FFF7A1FE0820606484F8405044
:103A00000120BDE8F8830320FBE72068006835EA61
:103A1000000004D00020B842D2D00020F1E70120FD
:103A2000F9E700000148FEF75BBC0000100200202F
:103A3000FEE700000FB4054B10B503A9044A029835
:103A400000F0BCF810BC5DF814FB0000E94D000864
:103A5000BC000020490050EAC12018BF04204A0DD4
:103A600018BF40F0010040F2FF72B2EB515F08BF97
:103A700040F00200012808BF052070470907090E21
:103A8000002804DB00F1E02080F80014704700F00B
:103A90000F0000F1E02080F8141D7047BFF34F8F36
:103AA00005480168054A01F4E06111430160BFF374
:103AB0004F8F00BFFDE700000CED00E00400FA05A9
:103AC0002DE9F0414F1E00EBC7010446D1E900018A
:103AD00015461E4637F006020DD02A463346FCF73F
:103AE00020FD7F1E04EBC703D3E90023FCF772FC23
:103AF00037F00602F1D1022F25D0042F13D0062F64
:103B000018BFBDE8F0812A463346FCF70AFDD4E928
:103B10000A23FCF75FFC2A463346FCF702FDD4E992
:103B20000823FCF757FC2A463346FCF7FAFCD4E995
:103B30000623FCF74FFC2A463346FCF7F2FCD4E997
:103B40000423FCF747FC2A463346FCF7EAFCD4E999
:103B50000223FCF73FFC2A463346FCF7E2FCD4E99B
:103B60000023BDE8F041FCF735BC0122FCF720BF83
:103B7000FCF730BC0022134610461146FCF7A9BEE4
:103B8000024A00201107FCF713BF000001FDFFFFF0
:103B900002E008C8121F08C1002AFAD17047704716
:103BA000002001E001C1121F002AFBD17047000074
:103BB0000149086070470000C00000202DE9FF4F58
:103BC00089B09B460446002506E025280BD05A46BE
:103BD0000B999047641C6D1C20780028F5D10DB01E
:103BE0002846BDE8F08F0027B8460122474900E08B
:103BF000074314F8013F203B02FA03F00842F7D1D3
:103C000020782E2819D114F8010F47F004072A282C
:103C10000ED06FF02F022078A0F1300109290CD8C6
:103C200008EB880102EB410100EB0108641CF2E79C
:103C30000A98641C50F8048B0A9020780028CED093
:103C4000642808D0692806D075281ED05A460B99DA
:103C500090476D1C58E00A994FF00A0901C90A9172
:103C6000002802DA40422D2102E0390504D52B213B
:103C70008DF82010012103E0F90704D02021F7E797
:103C80008A4608AE0DE00021FAE70A994FF00A09CA
:103C900001C90A91F7E74946FCF71FFD303106F8E4
:103CA000011D0028F7D1ADEB060000F120097807CF
:103CB00001D44FF00108C84502DDA8EB090000E07F
:103CC00000208046002706E008A85A46C05D0B99F0
:103CD00090476D1C7F1C5745F6DB04E030205A46A8
:103CE0000B9990476D1CB8F10001A8F10108F5DCB3
:103CF00005E016F8010B5A460B9990476D1CB9F177
:103D00000001A9F10109F4DC641C65E70928010040
:103D10002DE9FE4F07460E460025684601F072F871
:103D200000246FF00F0AE8464FF0010957F824000D
:103D300056F82410401A00D54042FCF764FC514666
:103D4000FCF73CFB58F8241011F0FF4F0BD0FCF7A8
:103D5000F7FA4FF07E51FCF7BBFA0A4920F0004019
:103D6000884205DC07E0084908440849884202D334
:103D700009FA04F00543641C032CD7DB2846BDE890
:103D8000FE8F0000295C0F3E666666C19A99D900D5
:103D90002DE9F04D8D4F21F0004A86B005460C46C6
:103DA000BA452ADBAAEB070028430AD08848824597
:103DB00001DC1AD1CDB106B02846BDE8F04DFFF7C1
:103DC000D4BE844A844B2846FCF7ABFB07460E461C
:103DD000824A834B28462146FCF7A3FB06B03A46AD
:103DE0003346BDE8F04DFCF7F5BA0120FFF7E0FEE1
:103DF00006B0BDE8F04DFFF7BDBE7A48824542DA15
:103E0000BAF1795F0BDA2846FFF724FE042808BFD1
:103E1000FFF7B6FE284606B02146BDE8F08D2A46DB
:103E20000B461046FCF77DFB834602466E480E4665
:103E30000B4606217844FFF743FE5A463346FCF70B
:103E400070FB804669488A465A46334604217844C6
:103E5000FFF736FE5A463346FCF763FB00223B462B
:103E6000FCF7B8FA02460B4640465146FCF731FDD6
:103E70002A462346FCF755FB06B02A462346BDE8F2
:103E8000F04DFCF7A7BA284624F0004100223D4639
:103E90003B46FCF743FB4FF0FF32FCF789FD06463B
:103EA000024653480F460B4606217844FFF708FEAA
:103EB00032463B46FCF735FBCDE900014D48324622
:103EC0003B4604217844FFF7FBFD32463B46FCF7B6
:103ED00028FB00222B46FCF77DFA834602913046F0
:103EE000394602F0E4FA804643480D46504517DC57
:103EF000DDE900015A46029BFCF7EBFC42462B46EB
:103F0000FCF70FFB42462B46FCF764FA0122FCF754
:103F10004FFD304A304BFCF7FEFA304A304B4CE054
:103F20004FF0000A52460B464046FCF753FACDE9E3
:103F3000031052462B4610461946FCF7F2FA324659
:103F40003B46FCF7EBFADDE90332FCF7C2FC064620
:103F50000F46DDE900015A46029BFCF7BAFC834696
:103F60000091012230463946FCF722FD194A1A4BCE
:103F7000FCF7D4FA06460F46012240462946FCF7D4
:103F800017FD5A46009BFCF7CCFA32463B46FCF73D
:103F9000C2FA06460F46012250462946FCF708FDA4
:103FA0000E4DDFF858802A464346FCF7B7FA3246F2
:103FB0003B46FCF7B3FA2A464346FCF7AFFA002C1F
:103FC000D8BF81F0004106B0BDE8F08D0000F03FA1
:103FD0000000F07F075C143326A6913C182D445452
:103FE000FB21F93F0000E03F983D0000AE3D00009E
:103FF000223D0000383D00003333EF3FFB21E93F15
:104000002DE9F84F04460D4621F000400091734918
:10401000814211DC7249884201DC06D12CB1204674
:104020002946BDE8F84FFFF7A0BD6E48002DCCBF74
:104030006D496E49BDE8F88F6D49814211DD6D49CA
:104040008142D8BF4FF0FF366DDD20462946FFF78D
:1040500001FD042808BFFFF793FD20462946BDE86F
:10406000F88F6549654F25F00045814233DD64498D
:10407000814219DD002632464FF080432046294612
:10408000FCF7A8F980468A46012220462946FCF71B
:104090008FFC00223B46FCF73EFA42465346FCF7B3
:1040A00018FC04460D463EE001260022BA463B4677
:1040B00020462946FCF78EF980460F4600225346DB
:1040C00020462946FCF727FA42463B46FCF701FC0E
:1040D00004460D4627E04B4981421BDDDFF828A14D
:1040E00002260022534620462946FCF71AFA0022EF
:1040F0003B46FCF76FF980460F46002253462046A8
:104100002946FCF708FA42463B46FCF7E2FB044628
:104110000D4608E0032622462B4600203B49FCF7CB
:10412000D8FB04460D4622462B4610461946FCF79E
:10413000F8F98B46824602460B46FCF7F2F9074631
:104140000246334888460B4606217844FFF7B8FC00
:1041500052465B46FCF7E5F982462E488B463A46C6
:10416000434605217844FFF7ABFC3A464346FCF74B
:10417000D8F902460B46002E504659460CDAFCF799
:1041800029F922462B46FCF7CCF901B022462B46F2
:10419000BDE8F04FFCF7C2B9FCF71CF922462B46EC
:1041A000FCF7BFF91C4A7A4402EBC603D3E90023AB
:1041B000FCF7B1F922462B46FCF7ADF9174A7A44D1
:1041C00002EBC603D3E90023FCF7A8F9009A002A02
:1041D000B8BF81F00041BDE8F88F00000000104436
:1041E0000000F07F182D4454FB21F93FFB21F9BF5B
:1041F0000000DC3F0000203E0000F33F0000F03FE5
:104200000000E63F008003400000F83F0000F0BFE0
:104210003A3B0000F83A0000963A00005E3A00008F
:104220002DE9F04D9446CCF1000423F000464CEA11
:104230000404594F46EAD4749A46884621F0004255
:10424000BC4206D8454240EA050442EAD474BC4266
:1042500004D9BDE8F04D6246FFF78ABCAAF140558B
:10426000A5F17F6555EA0C040BD0022404EAAA7478
:104270004A4DDFF82CE144EAD87452EA000B04D02E
:104280000CE0BDE8F04DFFF7BBBE002C14BF012CC5
:10429000BDE8F08D022C30D0032C32D056EA0C0B46
:1042A0000AD0BE4220D1BA4209D126F0804622F07F
:1042B00080423346114617E000291ADB25E0DFF87B
:1042C000E4B0FB44002C04BFDBE90001BDE8F08D45
:1042D000012C02BFDBE9000181F00041BDE8F08D57
:1042E000022C0AD0032C0CD0BA4212D1B8F1000F24
:1042F0000BDA2A482C49BDE8F08D28462B49BDE849
:10430000F08D28467146BDE8F08D24482849BDE867
:10431000F08D921B12153C2AC4BF204F244E10DC96
:10432000BAF1000FBEBF12F13C0F00273E4608DB7A
:104330006246FCF7CEFA21F00041FFF761FE074626
:104340000E4694B1012C08BF86F000460DD0194AE4
:10435000194B022C3846314615D0FCF7DCF82A46BA
:10436000BDE8F04D114BFCF7D6B800221346384695
:104370003146FCF735FB04BF0220FFF719FC384635
:104380003146BDE8F08DFCF7C6F82A46BDE8F04D91
:10439000064BFCF7C3B800000000F07F182D445412
:1043A000FB2109C0F2390000FB21F9BFFB210940C4
:1043B000FB21F93F075C143326A6A13C034610B548
:1043C0000020024603E09C5C6040521C92B28A428C
:1043D000F9D310BD10B504460E4800684FF47A7149
:1043E000B0FBF1F04FF0FF31B1FBF0F0A04209D289
:1043F000084800684FF47A71B0FBF1F04FF0FF31DC
:10440000B1FBF0F44FF47A7104FB01F000F004F812
:1044100010BD00002C0000202DE9F04105461B488E
:1044200000681B49B0FBF1F04FF0FF31B1FBF0F039
:10443000A84208D2154800681549B0FBF1F04FF0CA
:10444000FF31B1FBF0F5114800681149B0FBF1F004
:1044500045430027FCF760FC04460026B04610E008
:10446000FCF75AFC0646A64201D24FF00108B8F10B
:10447000000F02D0701E071B00E0371BAF4200D3B5
:1044800000E0EDE700BFBDE8F08100002C00002057
:1044900040420F0008B560B120208DF800002820B0
:1044A0008DF8010030208DF8020038208DF80300CF
:1044B00004E0A32204216846FBF799FE6A46042122
:1044C00040F69E2001F00CFE01F0D2FA08BD00007B
:1044D0003EB5044602208DF80000CA208DF8010088
:1044E000E3208DF8020009208DF803006A460421BC
:1044F000682001F0F5FDA3208DF80000610609D5C4
:10450000C0218DF80110C8218DF80210C2218DF84C
:10451000031005E08DF801008DF802008DF803000E
:1045200014F4C07F09D0C4218DF80410CC218DF87B
:104530000510C6218DF8061005E08DF804008DF8F1
:1045400005008DF806008DF808008DF807008DF83D
:1045500009006A460A2140F6A72001F0C1FDA00724
:104560004FF0D80503D020208DF8000001E08DF831
:1045700000506A46012140F6B62001F0B1FDA006C8
:1045800001D5012000E0002000F08EF814F4C07F77
:104590001ED0E0050AD5B2208DF800008B208DF8E2
:1045A0000100B6208DF802009B2009E0B0208DF8B4
:1045B000000080208DF80100B4208DF802009020CA
:1045C0008DF803006A46042140F6A22001F088FD20
:1045D000E1074FF40B6022D0F8218DF800106A46F5
:1045E000012101F07DFDFA21072000F049FB0720A1
:1045F00000F014FB012000F031FB642000F0D4FB3C
:104600004FF4FA7000F0E0FBC821254800F0CEFA24
:10461000282000F0E3FA0A2000F0F0FA05E08DF817
:1046200000506A46012101F05BFDA00703D5D920A7
:104630008DF8000001E08DF800506A46012140F23B
:104640003D7001F04DFD600701D5012000E0002024
:1046500000F048F8E00601D5012000E00020FFF757
:1046600019FF104D44F00800688101F001FA0020A4
:10467000A873600601D50620A87314F4C07F02D089
:10468000A87B801DA87314F0140F02D0A87B1030F3
:10469000A873A00702D0A87B001DA87300203EBD10
:1046A00009E3CA023C0700200EB54FF4976310B12E
:1046B00006A107C901E008A207CA8DE807006A46FB
:1046C0000921184601F00CFD0EBD0000B8AAB38DFB
:1046D000B4980D355D000000B8AAAAAAB088C3C579
:1046E000C700000008B560B1C0208DF80000C220EE
:1046F0008DF80100C4208DF80200C6208DF803005B
:1047000004E08B2204216846FBF771FD6A46042110
:1047100040F6982001F0E4FC01F0AAF908BD000081
:10472000C8234FF48062024940F6F63001F06AB8BF
:10473000D86F00082DE9FF4F89B01746DDE9165202
:104740000024544E884681462C80A246B07B6946A0
:1047500001F010F94FF0FF3B18B158460DB0BDE81D
:10476000F08F708910F0140F4CD0BDF800109DF838
:10477000022049BA090441EA02239DF803100B43C1
:104780003B60BDF804109DF8062049BA090441EACF
:1047900002229DF807101B140A437A60BDF8081026
:1047A0009DF80A4049BA090441EA04219DF80B40EA
:1047B00012142143B960BDF80C409DF80EC064BAD4
:1047C000240444EA0C2C9DF80F4009144CEA040C14
:1047D000C7F80CC04FEA2C475B43494302FB023247
:1047E00007FB071111441024A1F17061B1F1007FA2
:1047F00004D901F03DF9A5F800A0AEE7298841F4FD
:10480000807129804206694611D50A19A41D1388B2
:104810005BBAA8F8003053885BBAA8F802309288D7
:1048200052BAA8F804202A8842F008022A8010F41C
:10483000C07F11D00A19A41D13885BBAA9F80030F3
:1048400053885BBAA9F80230928852BAA9F80420BA
:104850002A8842F070022A80800716D00C44E07843
:1048600000F0C00500F03F016078C00706D0C8081E
:1048700001F007013268491C02B1904760780007D7
:1048800003D5716809B1A80988470C9801F058FC54
:10489000002063E73C0700202DE9FF41044603A800
:1048A00000F066FEBDF80C00410CC3032F480089E0
:1048B00000F0030254F82250420700D56D42C0F3C5
:1048C000C102860654F8222000D55242C0F3811658
:1048D000C00554F8264000D56442A5FB0367E817DD
:1048E00000FB037005FB0100850045EA9670A2FB02
:1048F0000367D51705FB037502FB0152950045EAD6
:104900009672A4FB0367E51705FB037304FB0131F3
:104910008B0043EA9671030E8DF80030030C8DF87E
:104920000130030A8DF802308DF80300100E8DF867
:104930000400100C8DF80500100A8DF80600080E12
:104940008DF80800080C8DF80900080A8DF80A0097
:104950008DF807208DF80B106A460C214FF4257056
:1049600001F0BEFB04B0BDE8F08100003C07002070
:1049700030B5044613A285B007CA8DE807004FF092
:10498000FF35C82C16D8C820B0FBF4F1491E080A20
:104990008DF80C008DF80D1003AA022140F21620AC
:1049A00001F09EFB30B96A460C2140F6C12001F0AF
:1049B00097FB10B1284605B030BD05488481002022
:1049C000F9E70000FEF2ABC4AAF1DFDFBBAFDFDF27
:1049D0003C070020F8B53049098901F0030250F87E
:1049E00022404A0700D56442C1F3C1028B0650F849
:1049F000222000D55242C1F3811350F82330C8055C
:104A000000D55B42254984FB0140850045EA94704E
:104A100082FB0142A40F44EA820483FB0121950F2B
:104A200045EA8105010E8DF80010010C8DF801108A
:104A3000010A8DF802108DF803006A4604214FF434
:104A4000747001F04DFB4FF0FF3688B9200E8DF8E1
:104A50000000200C8DF80100200A8DF802008DF86E
:104A600003406A4604214FF4757001F039FB08B128
:104A70003046F8BD280E8DF80000280C8DF8010096
:104A8000280A8DF802008DF803506A4604214FF47D
:104A9000767001F025FBF8BD3C07002009E3CA024F
:104AA0002DE9FF4104463CA004F003030068029096
:104AB0003AA0006803903AA006683AA0056802A8E8
:104AC000C15C8DF80010C4F3C101425C8DF8012077
:104AD000C4F38112805C8DF8020003A8C35C8DF8DA
:104AE0000430415C8DF80510805C8DF806006A4644
:104AF000032140F2264001F0F3FA4FF0FF37E0BB0C
:104B000001AA032140F22A4001F0EAFAA8BBCDE94C
:104B1000006560070BD59DF8000040F001008DF89E
:104B200000009DF8040040F001008DF80400A0068C
:104B30000BD59DF8010040F001008DF801009DF8B3
:104B4000050040F001008DF80500E0050BD59DF84B
:104B5000020040F001008DF802009DF8060040F0D0
:104B600001008DF806006A4603214FF4886001F0C9
:104B7000B7FA10B901AA032100E004E040F2314085
:104B800001F0AEFA18B1384604B0BDE8F08106482D
:104B900004810020F8E700004CCD6C000CC92C000B
:104BA00036567600264666003C0700204FF47A729F
:104BB00090FBF2F008B54843010E8DF80010010C8F
:104BC0008DF80110010A8DF802108DF803006A4675
:104BD00004214FF4AE7001F083FA08BD0521B0FB4B
:104BE000F1F008B5010A8DF800108DF801006A4651
:104BF00002214FF4AD7001F073FA08BD0521B0FB3E
:104C0000F1F008B5010A8DF800108DF801006A4630
:104C100002214FF4AC7001F063FA08BD08B5002121
:104C20008DF80010C10702D030218DF800108107E7
:104C300005D59DF8001041F00C018DF800104007DB
:104C400005D59DF8000040F003008DF800006A468D
:104C500001214FF4A47001F043FA08BD08B560B11A
:104C6000042800D90420401E8DF800006A46012166
:104C700040F24F1001F034FA08BD0120F3E70000C4
:104C80002DE9FC41054640074FF0FF367CD0B1F5D9
:104C9000C86F79D80846FBF7BFFC3E49FBF750FBCD
:104CA000074601A800F046FC9DF80400022806D043
:104CB00004280DD008282ED0102865D134E00E210C
:104CC0003846FBF77BFBFBF7C5FC84B2324907E0B3
:104CD0000D213846FBF772FBFBF7BCFC2F4984B271
:104CE0003846FBF7FBFAFBF7B5FC210A8DF80010FC
:104CF00080B28DF80140010A8DF802108DF8030092
:104D0000E8076C4620D0224602214FF4EA7001F0F9
:104D1000E7F9C8BB11E00C213846FBF74FFBFBF766
:104D200099FC84B21E49DBE70B213846FBF746FBB2
:104D3000FBF790FC84B21B49D2E7A21C02214FF47E
:104D4000927001F0CDF9F8B9A8070DD56A46022195
:104D50004FF4EC7001F0C4F9B0B9A21C02214FF479
:104D6000947001F0BDF978B9680710D56A46022140
:104D70004FF4EE7001F0B4F930B9A21C02214FF4E7
:104D8000967001F0ADF910B13046BDE8FC8100200D
:104D9000FBE7000000004843000040460000C0451B
:104DA000000040450000C0440521B0FBF1F008B50B
:104DB000010A8DF800108DF801006A4602214FF4B7
:104DC000EF7001F08DF908BD0521B0FBF1F008B5D9
:104DD000010A8DF800108DF801006A4602214FF497
:104DE000ED7001F07DF908BD13B5054C6423012277
:104DF00069462069FDF7A4FC0028F7D100981CBD86
:104E0000000000202DE9FE430646264801AB04229F
:104E100040680D21007801F095F910B10720BDE838
:104E2000FE839DF804101C2000EAD1029DF80710B3
:104E3000DFF87490C1F301131A438DF800209DF838
:104E40000520C1F3810300EAD2021A438DF8012044
:104E50009DF8062001F0030100EAD2000843002477
:104E6000124F8DF80200A0466D46285D10B146F83D
:104E700024900AE046F824800DE000BF56F8240094
:104E80003946FBF72BFA46F82400285D401E10F047
:104E9000FF002855F2D1641CE4B2032CE5D30020B6
:104EA000BDE700008C0000207B14AE3E1D5A843FFD
:104EB0002DE9FE4F05460120C14E8DF800004FF050
:104EC00000088DF8018030680C461746817C7068B8
:104ED0006B460222007801F043F94FF0FF3A0028B8
:104EE0007AD1C82001F026F98DF8008030686B4631
:104EF0000122C17B7068007801F032F90028EFD1FF
:104F000030686B46012241797068007801F028F919
:104F10000028E5D130686B460122817C70680078FA
:104F200001F01EF90028DBD130686B460122C17DFB
:104F30007068007801F014F90028D1D130686B4610
:104F4000012201797068007801F00AF90028C7D1C0
:104F50004FF00C098DF8009030686B460122017902
:104F60007068007801F0FCF8002835D10F2001F0BE
:104F7000E1F8B06A6B460122407A8DF80000306893
:104F800081787068007801F0EBF8002824D1B06ACD
:104F90006B460122007A8DF8000030684178706815
:104FA000007801F0DDF8002873D1B06A807A0FB183
:104FB00040F0E0008DF8000030686B4601228179F6
:104FC0007068007801F0CCF8002862D12FB1B06A87
:104FD000C07A40F0E00001E04AE018208DF80000BF
:104FE00030686B460122C1797068007801F0B8F82A
:104FF000F0BB17B1C82001F09DF840208DF80000EB
:1050000030686B46012201797068007801F0A8F8D9
:1050100070BB78208DF8000030686B460122417922
:105020007068007801F09CF810BB322001F082F823
:105030008DF80080306847466B46417970680122E0
:10504000007801F08DF898B931687068B046897AB7
:1050500000786B46022201F075F848B9BDF80000EF
:10506000AF6040BAB0FBF9F06F60C6B22F6000E0ED
:105070000FE0A76067602760002739E0D8F80010CC
:10508000D8F804006B46C97A00780C2201F05AF86F
:1050900010B15046BDE8FE8FBDF80000236840BA4D
:1050A00000B2BDF80210BDF804201844206049BACF
:1050B000606809B20844606052BAA06812B2104435
:1050C000A060BDF806002B6840BA01B2BDF8080028
:1050D000BDF80A201944296040BA696800B2084442
:1050E000686052BAA86812B210447F1CFFB2A86070
:1050F000B742C3D328688322C117090441EA10418B
:1051000000040023FBF732F832460023FBF72EF8A9
:10511000286068688322C117090441EA104100042D
:105120000023FBF723F832460023FBF71FF86860E3
:10513000A8688322C117090441EA10410004002332
:10514000FBF714F832460023FBF710F8A86020683C
:105150004FF40065C117090441EA104100042A46D2
:105160000023FBF703F832460023FAF7FFFF206025
:1051700060682A46C117090441EA1041000400236F
:10518000FAF7F4FF32460023FAF7F0FF6060A068F8
:105190002A46C117090441EA104100040023FAF726
:1051A000E5FF32460023FAF7E1FFA060002802DDA8
:1051B000A0F5803001E000F58030A060002069E7B4
:1051C0008C0000202DE9F84F81462E4888460025A6
:1051D00040686B46032200780D2100F0B3FF10B148
:1051E0000720BDE8F88F9DF80000002400F01F00A4
:1051F0008DF800009DF801006FF00F0B00F01F000C
:105200008DF801009DF802006E4600F01F008DF839
:1052100002004FF0010A00BF59F8241058F824008A
:10522000081A00D54042FBF7EEF95946FBF7C6F8DD
:105230000746305DC0B1144802E01449FBF74EF850
:10524000315D491E11F0FF013155F6D10146384656
:10525000FBF776F84FF07E51FBF73AF80C4920F057
:105260000040884205DC07E00A483844B0F1D97FA5
:1052700002D90AFA04F00543641C032CCCDB28464F
:10528000AFE700008C0000200000C84154E3853FD8
:10529000295C0F3E0000E0BE38B51D46C8230093D0
:1052A000034B40005B691C6913462A46A04738BD82
:1052B0004C000020FFF78EB890F90010002902DDA5
:1052C0004FF00000704702DA4FF00400704790F989
:1052D0000110002902DD4FF00100704702DA4FF0A3
:1052E0000500704790F90200002802DD4FF002002F
:1052F000704702DA4FF0060070474FF00700704722
:1053000070B5194C0146174D607800263246295475
:10531000CC2900D010B1401C607000E06270617850
:10532000207881421CD12918627011F8011CDD29F6
:1053300016D1801E81B20B48FFF740F82278A918D9
:1053400011F8021C88420BD106490D31002004E0FF
:105350002B5C401C01F8013BC0B29042F8D30126FF
:10536000304670BD4C070020B800002008B5FCF79F
:10537000FFF8FEF73EF8FDF7C3FBFDF7ABFBFDF7CB
:1053800095FCFDF7CBFCFDF725FCFDF76DFCFDF76B
:10539000A9FCFBF7C7FCFDF713FD04213A48FCF715
:1053A00025FEFDF74FFBFBF7B3FB1E2237493848BC
:1053B000FCF749FF0224374FDFF8DC80DFF8DC9090
:1053C000DFF8DCA0374E0C25002137A20846FDF798
:1053D000B1FE37A20A210020FDF7ACFE36A214214F
:1053E0000020FDF7A7FE00940323002132203A6835
:1053F000FDF7CEFD009403230A213220D8F80020C7
:10540000FDF7C6FD0094032314213220D9F80020B3
:10541000FDF7BEFD29A21E210020FDF78BFE0094A2
:1054200003231E213220DAF80C20FDF7B1FD25A25E
:1054300028210020FDF77EFEB6F8070020B10128E4
:1054400004D0022804D008E020A202E020A200E05C
:1054500021A228213220FDF76DFE0095B6F8052027
:10546000032332211E20FDF729FE0095B6F80920FE
:10547000042332213C20FDF721FEFDF71BFD0A200D
:10548000FEF7A8FFA0E70000F0000020D0000020F9
:105490001002002068000020640000206C00002042
:1054A0000000002059070020506974636800000064
:1054B000526F6C6C000000005961770074656D706C
:1054C00000000000636F6C6F720000007265640082
:1054D000677265656E00000079656C6C6F7700001F
:1054E0002DE9F041124C20F00101002594F8240030
:1054F00010B10020BDE8F081A07A4FF0FF3668B10E
:105500000840277C2074884200D0354641B10120F4
:1055100000F0A0FF00F0ACFA38B127743046E9E79C
:10552000207D00B1012000F095FF2846E2E7000051
:105530008C0000200D494A7A42B1012A08D0022A83
:105540000FD0032A0FD04FF0FF307047022200E047
:1055500004220270C97C11B11106C90D017000202E
:1055600070470822F5E71022F3E700008C000020C6
:105570000F494A7A42B1012A09D0022A11D0032ADE
:1055800012D04FF0FF3070474FF4804201E041F6F7
:105590009C720280C97C11B1C2F34E0101800020CF
:1055A00070474FF48052F4E74FF40062F1E70000D7
:1055B0008C0000200B49097A39B1012907D0022952
:1055C0000AD003290BD0002103E0FA2101E04FF4B7
:1055D000FA710180002070474FF47A71F9E74FF4B7
:1055E000FA61F6E78C0000200A49097A41B10129E5
:1055F00008D002290AD003290AD04FF0FF307047A3
:10560000054900E005490160002070470449FAE7B8
:105610000449F8E78C0000200000034300008342A7
:1056200033330342333383410C49C97A072913D2F8
:10563000DFE801F01204060A0C0E1000BC2100E0A5
:1056400062210180002070472A21FAE71421F8E73F
:105650000A21F6E70521F4E70021F2E78C0000209B
:10566000054991F8242012B14FF0FF307047C989E5
:1056700001800020704700008C0000202DE9FC41D3
:105680004C4C80208DF8000020686B460122817C04
:105690006068007800F064FD4FF0FF37002832D1D9
:1056A000642000F047FD00258DF8005020686B460F
:1056B0000122817C6068007800F052FD002871D1E1
:1056C00020686B460622817D6068007800F03AFD14
:1056D000002867D19DF805009DF80310C007400F12
:1056E00001F0010140EA41019DF801004FF001067F
:1056F00000F00100014309D0012905D0022915D08D
:105700002DA0FEF797F94DE0E67410E020686B4697
:105710000122C1786068007800F014FD48BB9DF854
:10572000000010F00F0021D0042823D0E574FF20E2
:10573000A07204F8080F4FF6FF716070E070E1800E
:105740002072A0722671A6761A48E5766573001F4E
:10575000257340F81A5F4560856025776577E58396
:105760004FF4FA6000F082FB18B907E01C48FEF71E
:1057700061F917E01BA0FEF75DF9C5E7022000F014
:1057800097FA78B92A2000F0D9FB58B9322000F0F6
:105790000BFC38B90020FFF7A3FE18B9002000F079
:1057A000BBFA10B13846BDE8FC81002000F03CFC9B
:1057B0000020F8E78C000020556E737570706F72D2
:1057C00074656420736F6674776172652070726FA0
:1057D00064756374207265762025642E0A000000CB
:1057E000C07C000848616C662073656E73697469DB
:1057F00076697479207061727420666F756E642E9C
:105800000D0A00002DE9F04FDFF8AC80064685B0A8
:1058100098F825009B4615460F4620B14FF0FF3003
:1058200005B0BDE8F08F0FB1002427E06FF0010054
:10583000F6E7301B102800DD102080B282463A19AE
:1058400001469146204600F04BFC10B16FF002007B
:10585000E6E76A465146204600F0D4F810B16FF0F2
:105860000300DDE7484652466946FAF7D2FC10B11C
:105870006FF00400D4E704EB0A0084B2B442D8D33A
:10588000280A8DF810008DF81150D8F80000444611
:1058900004AB817ED8F804000222007800F060FC9E
:1058A00010B16FF00500BBE7012084F82500A4F8D3
:1058B00026B00020B4E700008C0000202DE9F8435A
:1058C00005464FF0FF39282844D80727284C0026E2
:1058D0007DB1012000F000FB20208DF800004FF08A
:1058E0000108012D17D0052D18D88DF8018005204D
:1058F0001FE0002000F0F0FA8DF800608DF80170D4
:1059000020686B460222817C6068007800F028FCE9
:1059100000BB267529E08DF80160E8E7142D04D856
:1059200002208DF801000A2003E003208DF8010019
:10593000142000F003FB9DF801006B4607EB80107C
:105940008DF8010020680222817C6068007800F0F8
:1059500007FC10B14846BDE8F8830820A072267302
:1059600084F814800020FFF7BBFD0020F3E700005F
:105970008C0000202DE9F843214C0646174694F888
:10598000240089464FF0FF3890B3A07A80B3206896
:105990006B460222817A6068007800F0D3FB38BB46
:1059A000BDF8000045BAB54202D2002038701FE0B1
:1059B00060684188B5EB510F11D9216800786B46BA
:1059C000497C012200F0BEFB90B99DF80000C006A2
:1059D00005D500F04DF86FF00100BDE8F8832068B0
:1059E000F2B24B46C17A6068007800F0ABFB08B1B8
:1059F0004046F2E7B5FBF6F0401E38700020ECE7B9
:105A00008C000020F8B516000D4610D0174CA17A76
:105A100081B1010A8DF80010C0B28DF80100411962
:105A200060684289914208D96FF00200F8BD4FF0DA
:105A3000FF30F8BD6FF00100F8BD216800786B46BB
:105A4000097E022200F08CFB10B16FF00300F8BD5C
:105A50002068EAB23346417D6068007800F072FB4E
:105A60000028F4D06FF00400F8BD00008C00002086
:105A7000F8B5524C4FF0FF36A07A00287CD00025B4
:105A80008DF8005020686B460122C17B6068007869
:105A900000F066FB00286FD120686B460122417937
:105AA0006068007800F05CFB002865D120686B46D8
:105AB000012201796068007800F052FB00287AD159
:105AC00094F82400C8B30C208DF8000020686B46C1
:105AD000012201796068007800F042FB00286AD159
